:100000000C948C040C94B4040C94B4040C94B404B8
:100010000C94B4040C94B4040C94B4040C94B40480
:100020000C94B4040C94B4040C9424210C949321E7
:100030000C94B4040C94B4040C94B4040C94B40460
:100040000C94B4040C94B4040C94B4040C94B40450
:100050000C94B4040C94B4040C94B4040C94C52310
:100060000C94B4040C94B4040C94B4040C94B40430
:100070000C94B4040C94B4040C94B4040C94B40420
:100080000C940F240C94B4040C94B4040C94B40495
:100090000C94B4040C94B4040C94B4040C94B40400
:1000A0000C94B4040C94B4040C94B40405A84CCD82
:1000B000B2D44EB93836A9020C50B9918688083CA2
:1000C000A6AAAA2ABE000000803F00407A10F35A78
:1000D00000A0724E18090010A5D4E80000E8764888
:1000E000170000E40B54020000CA9A3B000000E134
:1000F000F505000080969800000040420F000000C7
:10010000A08601000000102700000000E8030000A6
:1001100000006400000000000A0000000000010070
:10012000000000002C76D888DC674F0823DFC1DF91
:10013000AE59E1B1B796E5E3E453C63AE651997694
:1001400096E8E6C28426EB898C9B62ED407C6FFCCE
:10015000EFBC9C9F40F2BAA56FA5F490055A2AF710
:100160005C936B6CF9676DC11BFCE0E40D47FEF519
:1001700020E6B500D0ED902E030094357705008081
:10018000841E080000204E0A000000C80C333333E0
:10019000330F986E12831141EF8D2114893BE65580
:1001A00016CFFEE6DB18D1844B381BF77C1D901D63
:1001B000A4BBE424203284725E228100C9F124ECC5
:1001C000A1E53D272A0026005E002500240023002B
:1001D0004000210052454143484544004C494D49A7
:1001E00054004552524F520020204D41583A004D84
:1001F000494E3A00524F4C4C533A2020004156454C
:10020000524147453A0044454255470056495355E7
:10021000414C495A4552004449535452494255545D
:10022000494F4E004449434520524F4C4C00323018
:1002300032340077686F206B6E6F77732077687940
:100240000040524F434B54524F4E494341004D41A1
:10025000444520425900D201D001CE01CC01CA014F
:10026000C801C601C401C4002200060144004A01BD
:1002700044000B0288000080E201DC01D401060288
:10028000FD01F401EF01E801C4001100A500110017
:10029000F700110083001100C4001100A500110037
:1002A000F7001100830011000080240217020C02E5
:1002B0004E02410233022E02A5002200AF002200AE
:1002C000C4002200AF002200008000000000003EB9
:1002D0005B4F5B3E3E6B4F6B3E1C3E7C3E1C183CB6
:1002E0007E3C181C577D571C1C5E7F5E1C00183C12
:1002F0001800FFE7C3E7FF0018241800FFE7DBE75B
:10030000FF30483A060E2629792926407F05050741
:10031000407F05253F5A3CE73C5A7F3E1C1C08089D
:100320001C1C3E7F14227F22145F5F005F5F060962
:100330007F017F006689956A606060606094A2FFBB
:10034000A29408047E040810207E201008082A1CAD
:1003500008081C2A08081E101010100C1E0C1E0C79
:1003600030383E3830060E3E0E0600000000000019
:10037000005F00000007000700147F147F14242A88
:100380007F2A12231308646236495620500008075A
:100390000300001C2241000041221C002A1C7F1C7B
:1003A0002A08083E0808008070300008080808087D
:1003B000000060600020100804023E5149453E00E4
:1003C000427F400072494949462141494D33181442
:1003D000127F1027454545393C4A49493141211191
:1003E00009073649494936464949291E0000140083
:1003F00000004034000000081422411414141414A6
:10040000004122140802015909063E415D594E7C03
:100410001211127C7F494949363E414141227F41B8
:1004200041413E7F494949417F090909013E414116
:1004300051737F0808087F00417F41002040413F01
:10044000017F081422417F404040407F021C027F10
:100450007F0408107F3E4141413E7F090909063E65
:100460004151215E7F091929462649494932030134
:100470007F01033F4040403F1F2040201F3F403846
:10048000403F631408146303047804036159494D21
:1004900043007F4141410204081020004141417F57
:1004A00004020102044040404040000307080020CD
:1004B000545478407F2844443838444444283844CD
:1004C00044287F385454541800087E090218A4A404
:1004D0009C787F0804047800447D40002040403D23
:1004E000007F1028440000417F40007C047804789D
:1004F0007C080404783844444438FC182424181830
:10050000242418FC7C08040408485454542404048B
:100510003F44243C4040207C1C2040201C3C403078
:10052000403C44281028444C9090907C4464544CA7
:100530004400083641000000770000004136080002
:1005400002010204023C2623263C1EA1A161123AAC
:100550004040207A385454555921555579412154F9
:10056000547841215554784020545579400C1E52FE
:1005700072123955555559395454545939555454A2
:10058000580000457C410002457D420001457C4009
:10059000F0292429F0F0282528F07C545545002026
:1005A00054547C547C0A097F4932494949323248C3
:1005B000484832324A4848303A4141217A3A42402A
:1005C0002078009DA0A07D39444444393D404040FE
:1005D0003D3C24FF2424487E4943662B2FFC2F2BCF
:1005E000FF0929F620C0887E090320545479410070
:1005F00000447D413048484A32384040227A007AEF
:100600000A0A727D0D19317D2629292F28262929CC
:10061000292630484D4020380808080808080808EE
:10062000382F10C8ACBA2F102834FA00007B000015
:1006300008142A142222142A14089500220095AACC
:10064000005500AAAA55AA55AA000000FF001010E4
:1006500010FF00141414FF001010FF00FF1010F022
:1006600010F0141414FC001414F700FF0000FF0035
:10067000FF1414F404FC141417101F10101F101F83
:100680001414141F00101010F0000000001F1010B0
:1006900010101F10101010F010000000FF101010AC
:1006A000101010101010FF10000000FF140000FFC9
:1006B00000FF00001F10170000FC04F414141710B2
:1006C000171414F404F40000FF00F71414141414A5
:1006D0001414F700F7141414171410101F101F141B
:1006E0001414F4141010F010F000001F101F00007C
:1006F000001F14000000FC140000F010F01010FFA8
:1007000010FF141414FF141010101F00000000F04C
:1007100010FFFFFFFFFFF0F0F0F0F0FFFFFF000021
:10072000000000FFFF0F0F0F0F0F38444438447CC8
:100730002A2A3E147E02020606027E027E026355CB
:100740004941633844443C04407E201E2006027E1A
:10075000020299A5E7A5991C2A492A1C4C7201722C
:100760004C304A4D4D303048784830BC625A463D96
:100770003E494949007E0101017E2A2A2A2A2A444B
:10078000445F444440514A444040444A5140000080
:10079000FF0103E080FF000008086B6B083612368B
:1007A0002436060F090F060000181800000010106C
:1007B000003040FF0101001F01011E00191D17122A
:1007C000003C3C3C3C000000000000B00000A17078
:1007D000E150964F26900F1D070C009669004AE4E1
:1007E0004A0048444000806810000F99FB8F9DBD6F
:1007F000BBFB77D4D4DF1F1A1AFE7F5D5DFF805AE2
:100800000000A0A4AA0010BA3400FF5953F3FF9BC4
:100810009B9EFFB9B996FF9595D19FF4940FFC2943
:100820005F91FF1838F8FF9294FFFF95D5F7BFB599
:10083000DDD7F18F81F1F788C8F779C6467909FDD0
:100840009B090196F8008281828050716200775680
:10085000560076763700A2B7730107720600782734
:10086000500073347400775176007F55F70047715C
:100870001000324772007364730015A2750061673F
:100880009400009F6060F4F2F6F2D5F08D14A1C8D8
:1008900081CFD9F1AF2000080B000202020000094D
:1008A00004000001020200000524001001052401DB
:1008B0000101042402060524060001070581031036
:1008C000004009040100020A00000007050202407E
:1008D0000000070583024000000403090412010020
:1008E00002EF020140412336800001010203014171
:1008F000726475696E6F204C4C430041726475627E
:100900006F79004A0111002601110006011100A5AE
:10091000001100008000702411241FBECFEFDAE028
:10092000DEBFCDBF11E0A0E0B1E0E2EEFEE502C027
:1009300005900D92A838B107D9F728E0A8E8B1E0F2
:1009400001C01D92A135B207E1F714E0CCE8D4E074
:1009500004C02197FE010E94772DCB38D107C9F73B
:100960000E94CE240C946F2F0C940000809193036E
:1009700008956034710590F5480F592F511D1416D4
:10098000150664F5803891054CF597FF02C090E09C
:1009900080E04138510514F040E850E0481BFB016D
:1009A000E770FF2721E001C0220FEA95EAF7FB017B
:1009B00033E0F595E7953A95E1F7F695FE2FEE27AA
:1009C000F795E795E80FF91FEC5CFB4F415030F0CD
:1009D0008191DF011197822B8C93F8CF0895E4E386
:1009E000F4E080E0A0E0B8E000800EBC8111012CB2
:1009F0001197A0FDFDCF0192B9F70DB40895FC0148
:100A00008091B103882311F13FB7F89482E080937D
:100A1000E9002091F200822F90E01816190614F4D4
:100A200081E090E0882339F0289844E64093B003B1
:100A30004091F1004083222339F02091F2002111EE
:100A400003C02BE62093E8003FBF08958FEF9FEF90
:100A500008952FB7F89483E08093E9009091E8001F
:100A6000892F807295FF04C09091F20080E4891B69
:100A70002FBF08958091A80381110DC082E080935B
:100A8000A40384E08093A5031092A7031092A60309
:100A900081E08093A80384EA93E00895CF93DF93E5
:100AA0001F92CDB7DEB76983DC01ED91FC91028026
:100AB000F381E02D41E050E0BE016F5F7F4F09956B
:100AC0000F90DF91CF91089583E08093E9008091AA
:100AD000F200882319F08AE38093E80008950E94C9
:100AE000290590E00895CF93DF931F92CDB7DEB72D
:100AF000FC018485958597FD08C02FEF3FEF358772
:100B000024870F90DF91CF910895CE0101960E9426
:100B1000FF04019719F4898190E0F3CF8FEF9FEFE5
:100B2000F0CF0F931F93CF93DF931F92CDB7DEB714
:100B30008C01FC018485958597FF0BC0CE01019641
:100B40000E94FF04019771F4898190E0F801958774
:100B50008487F801848595850F90DF91CF911F914F
:100B60000F9108958FEF9FEFF1CFFC01848595855C
:100B700097FD0BC09FB7F89482E08093E9008091C5
:100B8000F2009FBF90E0019608959FB7F89482E02D
:100B90008093E9008091F2009FBF90E0089540911A
:100BA0009E0350919F0320919C0330919D03421717
:100BB0005307B4F49091E8009570E1F39091E80048
:100BC00092FD19C08093F10080919E0390919F0344
:100BD00001968F739927892B19F48EEF8093E80083
:100BE00080919E0390919F03019690939F03809321
:100BF0009E0381E0089580E00895EF92FF920F93A5
:100C00001F93CF93DF93F82E192FE62E042F81E048
:100C1000860F880F0E94CF0583E00E94CF05CF2D5D
:100C2000D12FEC0EFD2EF11CCE15DF05B9F007FF1C
:100C300013C0FE0184910E94CF05182F80E00E940E
:100C4000CF05812321968111EFCFDF91CF911F91A5
:100C50000F91FF90EF9008958881EDCF81E0F5CF5F
:100C6000DF92EF92FF920F931F93CF93DF93D82ED3
:100C70008A01EB017B01E40EF51ECE15DF0559F06C
:100C8000D7FE12C0FE0184910E94CF0521968111EA
:100C9000F4CF0FEF1FEFC801DF91CF911F910F919C
:100CA000FF90EF90DF9008958881EECF0F931F9310
:100CB000CF93DF931F92CDB7DEB782E0898342E402
:100CC00050E067E978E080E80E9430060E943A052B
:100CD000DC0112960D911C910115110589F0D801C6
:100CE000ED91FC910280F381E02DBE016F5F7F4F9B
:100CF000C801099597FD04C0F80100851185ECCF66
:100D000089810F90DF91CF911F910F9108956150CC
:100D100030F02091F100FC0120830196F8CF289853
:100D200084E68093B00308950895DB0114964D91F5
:100D30005C9115976D917C91DC01ED91FC910280A5
:100D4000F381E02D0994AF92BF92CF92DF92EF92A0
:100D5000FF920F931F93CF93DF936C017B018B0165
:100D6000040F151FEB015E01AE18BF08C017D107B5
:100D700059F06991D601ED91FC910190F081E02D3F
:100D8000C6010995892B79F7C501DF91CF911F9194
:100D90000F91FF90EF90DF90CF90BF90AF900895AC
:100DA0003FB7F89480918F0390919003A0919103A5
:100DB000B091920326B5A89B05C02F3F19F001966C
:100DC000A11DB11D3FBFBA2FA92F982F8827BC01A5
:100DD000CD01620F711D811D911D42E0660F771FCD
:100DE000881F991F4A95D1F708958F929F92AF92CD
:100DF000BF92CF92DF92EF92FF926B017C010E9433
:100E0000D0064B015C01C114D104E104F104B9F036
:100E10000E94D006681979098A099B09683E7340C7
:100E20008105910580F321E0C21AD108E108F1089B
:100E300088EE880E83E0981EA11CB11CE4CFFF90C1
:100E4000EF90DF90CF90BF90AF909F908F900895DC
:100E50008F929F92AF92BF92CF92DF92EF92FF92CA
:100E60000F931F93CF93DF936C017B018A018091D5
:100E70000C01882309F45CC08091B103882309F434
:100E800057C08091A30380FF05C08091E00082607D
:100E90008093E000E801B12C8AEFA82E93E0892E20
:100EA0002AE3922E209711F4BB20D9F10E94290544
:100EB00081110AC0AA94AA20D9F161E070E080E013
:100EC00090E00E94F506EECF8C171D0611F00CF095
:100ED0008C2F9FB7F8948092E9002091E80025FDBF
:100EE00002C09FBFDFCF282F30E0C21BD30BF7011A
:100EF000815020F041914093F100FACFE20EF31EB1
:100F0000BB2021F09092E800B12CEBCF8091E8005B
:100F100085FDE7CF9092E800BB24B394209709F3B6
:100F2000F3CF5D9884E68093A203101611063CF07F
:100F300081E090E0F6019383828310E000E0C80135
:100F4000DF91CF911F910F91FF90EF90DF90CF90A5
:100F5000BF90AF909F908F9008956F927F928F92E5
:100F60009F92AF92BF92CF92DF92EF92FF920F9338
:100F70001F93CF93DF934C017B01C22F102F98E07A
:100F8000A92EB12C642E669466946694712CCA01C5
:100F900087709927892B79F5D40117962D913C916B
:100FA000C7019927B9010E94632D269DF001279D55
:100FB000F00D369DF00D11248E0F9F1FD401159654
:100FC000ED91FC91E80FF91F2081111112C0C0951D
:100FD000C223C083DF91CF911F910F91FF90EF90BB
:100FE000DF90CF90BF90AF909F908F907F906F9049
:100FF0000895C22BEECFD0E04770C42ED12C83E0F1
:10100000660C771C8A95E1F79E0101C0220F4A9574
:10101000EAF7012FA301B701C4010E94AD07A301A4
:10102000485F5F4FC5018C199D0902C0D595C795D2
:101030008A95E2F7A7CF5F926F927F928F929F92ED
:10104000AF92BF92CF92DF92EF92FF920F931F93D6
:10105000CF93DF93EC016A30F1F48D859E859C87F8
:101060008B878C892F853889820F932F911D988BC0
:101070008F8781E090E0DF91CF911F910F91FF90DA
:10108000EF90DF90CF90BF90AF909F908F907F9028
:101090006F905F900895AB84BC84693031F429E08F
:1010A000A20EB11CBC86AB86E4CF3DEFA3163FEF8A
:1010B000B3060CF45DC08F819885A816B9060CF0B4
:1010C00057C0CF84D8888DEFC8168FEFD8060CF4A0
:1010D0004FC089859A85C816D9060CF049C0603280
:1010E00008F46FE780EE860F9FE9960F9A3118F4A7
:1010F0009FEFC91AD90A8C3011F08B3119F42FEFF8
:10110000C21AD20A869534E0839FC00111249C0143
:101110002653384F7901912C812C162F1170F7012D
:10112000E80DF91D549011112DC0352D3F70532E2F
:101130003501680C791C8C81882361F001E0898974
:101140009A89892B09F000E02FE0A601B301CE01B6
:101150000E94AD070989252DA601B301CE010E9489
:10116000AD078FEF881A980A94E089169104B9F6B2
:101170008B8990E004962B853C85820F931F9C877A
:101180008B8777CF52948FE05822D2CFEF92FF9285
:101190000F931F93CF93DF938C017B01D0E0C0E0CE
:1011A000F701EC0FFD1F6491662339F0C8010E941E
:1011B0001B08892B11F02196F3CFCE01DF91CF913F
:1011C0001F910F91FF90EF90089520918703E09178
:1011D0008503F0918603CF01029690938603809356
:1011E0008503222319F0859194910895808191813E
:1011F0000895CF92DF92EF92FF92CF93DF930E94F8
:10120000E508811520E8920791F4809171008D7FA7
:101210008093710010929100469847981092840331
:10122000DF91CF91FF90EF90DF90CF90089521E074
:1012300020938403813020E8920751F48091820347
:101240009091830390938603809385030E94E50821
:1012500097FD05C020918103222309F454C02091F9
:101260008003211150C021E020938803EC01DF7737
:10127000209709F04BC081E08093890346983FE9AD
:10128000C32E3FE0D32EE12CF12CCAEFD0E0E09149
:101290001004F09111040995811103C081E080933D
:1012A000890380918803882329F08091890388230A
:1012B00009F43FC047980E94E5080097F1F19C01AE
:1012C000DE010E943D2BDC01CB0129E0B595A795FD
:1012D000979587952A95D1F7109290002AE0209350
:1012E0009100D0929900C092980080938A039093C5
:1012F0008B03A0938C03B0938D0380917100826067
:10130000809371008DCF10928803B0CF9E0150E082
:1013100040E060E472E48FE090E00E94B22A69014C
:101320007A0181E0C81AD108E108F1081092890316
:10133000AECF4699BFCF479ABECF8FEF9FEFDC016C
:10134000CBCF9C01E1E7F0E090819D7F908381E02D
:101350008093870330938603209385033093830320
:10136000209382030C94F908BC0190E080E00C9477
:10137000F5068FB18095807F669B88601C9B84609A
:10138000089590917B03982329F490917A039823F0
:1013900081E009F480E008951F93CF93DF93C82F75
:1013A000D62F80E80E94C109182F811105C080E165
:1013B0000E94C109882371F080910F019091100162
:1013C000029721F083E099E00E94A109112339F0EE
:1013D000C111C1508C2FDF91CF911F9108958C2F97
:1013E00090E06D2F70E00196681779070CF4CB013F
:1013F000C82FF0CFCF93C82F0E94B909982F9C23F4
:1014000081E09C1380E0CF91089580389105B8F475
:1014100060347105A0F420E191E061FD94E060FD8D
:10142000990F62FD9295687F269FD0011124A80F25
:10143000AC5CBB4F8C9140FF03C0892B8C9308950B
:1014400090958923FBCF2F923F924F925F926F929C
:101450007F928F929F92AF92BF92CF92DF92EF9244
:10146000FF920F931F93CF93DF937C014B01C42F07
:10147000D0E081E090E06C01CC1ADD0AAA24BB2404
:10148000AC1ABD0AAA0CBB1C66246394712C10E034
:1014900000E0822F8470582E822F8270482E822F77
:1014A0008870382E2170222ED7FC06C0219782E04A
:1014B000A80EB11CCA0CDB1C0F5F1F4F82E0680E28
:1014C000711CC60CD71C552091F041E0BE01680D7F
:1014D000791DC701800F911F0E94050A41E0B401E8
:1014E000600F711FCE018E0D9F1D0E94050A4420C2
:1014F00091F041E0B4016C1B7D0BC701800F911F7F
:101500000E94050A41E0B401601B710BCE018E0DF3
:101510009F1D0E94050A332091F041E0B401600F45
:10152000711FC7018C1B9D0B0E94050A41E0BE0183
:10153000680D791DC701801B910B0E94050A2220AE
:1015400091F041E0B401601B710BC7018C1B9D0B36
:101550000E94050A41E0B4016C1B7D0BC701801B92
:10156000910B0E94050A0C171D070CF49DCFDF910B
:10157000CF911F910F91FF90EF90DF90CF90BF9090
:10158000AF909F908F907F906F905F904F903F9023
:101590002F9008958F929F92AF92BF92CF92DF9239
:1015A000EF92FF920F931F93CF93DF936D3089F0EB
:1015B000C0907C03D0907D036A30D1F410927F03F9
:1015C00010927E0388E0C80ED11CD0927D03C09299
:1015D0007C0381E090E0DF91CF911F910F91FF900C
:1015E000EF90DF90CF90BF90AF909F908F90089535
:1015F00000917E0310917F03E5E06E9FE0011124CE
:10160000C653DD4F4801F12CF5E0E12CFF1629F01F
:10161000CE010196FE01E490EC01B12CA12C4E2DDF
:101620004170B6016A0D7B1DC4010E94050AE69453
:10163000FFEFAF1ABF0A88E0A816B10481F7F39450
:10164000EFEF8E1A9E0AF6E0FF12DECF0A5F1F4F01
:1016500010937F0300937E03BCCFDF92EF92FF9243
:101660000F931F93CF93DF937C01D22E8B01040F36
:10167000111DEB0177FF02C0D0E0C0E0C8010134CA
:10168000110514F080E490E0C817D9073CF44D2D03
:10169000BE01C7010E94050A2196F0CFDF91CF91CC
:1016A0001F910F91FF90EF90DF9008952F923F923E
:1016B0004F925F926F927F928F929F92AF92BF9262
:1016C000CF92DF92EF92FF920F931F93CF93DF930E
:1016D0008C01EB017A018417950741F562177307B6
:1016E00009F4A7C0AB01421B530B57FF03C0519530
:1016F000419551094F5FBE012C173D070CF4B9010C
:1017000021E0C801DF91CF911F910F91FF90EF90E1
:10171000DF90CF90BF90AF909F908F907F906F9011
:101720005F904F903F902F900C942D0B6217730792
:1017300019F5AC014E195F0957FF03C0519541954A
:1017400051094F5FC801E016F1060CF4C701BE0154
:10175000DF91CF911F910F91FF90EF90DF90CF908D
:10176000BF90AF909F908F907F906F905F904F90C1
:101770003F902F900C94B9046901C61AD70AD7FE7E
:1017800003C0D194C194D1084701801A910A97FEF1
:1017900003C09194819491088C149D0454F49E2D5F
:1017A0008F2D7901292F382F902F812F8E01C92F4E
:1017B000D82FE016F10654F49C2F8D2FE901292F24
:1017C000382F902F812F8701E92EF82E1701201A2C
:1017D000310A29014C1A5D0A57FE03C05194419405
:1017E0005108310137FE03C08FEF681A780A7594EB
:1017F00067948FEFC217D3070CF481E0A82E880FEF
:10180000BB08E016F106ACF041E0B801CE018C1443
:101810009D0414F0BE01C8010E94050A64187508F1
:1018200077FE04C0CA0DDB1D620C731C0F5F1F4FD7
:10183000E8CFDF91CF911F910F91FF90EF90DF9054
:10184000CF90BF90AF909F908F907F906F905F9060
:101850004F903F902F9008955F926F927F928F925A
:101860009F92AF92BF92CF92DF92EF92FF920F932F
:101870001F93CF93DF93EC017B01142F722E602E08
:10188000660C542E5618802E912C5401A80EB91EA9
:10189000452DC5010E94B9046701C70CD11CB601D2
:1018A00061507109452DC5010E94B9047618E80CF4
:1018B000F91C21E0472DB701CE010E942D0BC10F6D
:1018C000D11D21E0472DB701CE0101970E942D0BBC
:1018D00021E0402FB701C5010E94230AC819D90988
:1018E000219722E0402FB701CE010E94230A760102
:1018F000E818F90881E0E81AF10824E0402FB70160
:10190000CE010E94230A28E0402FB701C501DF91D4
:10191000CF911F910F91FF90EF90DF90CF90BF90EC
:10192000AF909F908F907F906F905F900C94230A60
:101930002F923F924F925F926F927F928F929F92DF
:10194000AF92BF92CF92DF92EF92FF920F931F93CD
:10195000CF93DF9300D000D0CDB7DEB76C013B0151
:101960004A83222EAA24A394B12C10E000E083E045
:1019700090E09C838B839AEF492E55245A942EEF46
:10198000E22EFF24FA9491E0920D99830F5F1F4F8E
:10199000E2E0AE0EB11CEA0CFB1C4B81440FB3011C
:1019A0008B819C81681B790B322C3A0C4301801A85
:1019B000910A9A81913029F5E9814E0F20E0C60104
:1019C000800F911F0E942D0B20E0432DB4018B81CD
:1019D0009C818C0D9D1D0E942D0BEB81FC810E17AF
:1019E0001F0704F5FFEFEF16FF0681F28B819C8144
:1019F00001979C838B8392E0490E511CE40CF51CEB
:101A0000C5CFF9814F0F20E0C601801B910B0E94CA
:101A10002D0B20E0432DB401C601EB81FC818E1B10
:101A20009F0BD9CF0F900F900F900F90DF91CF9118
:101A30001F910F91FF90EF90DF90CF90BF90AF90EC
:101A40009F908F907F906F905F904F903F902F90DE
:101A50000895EDE0F1E090818181989F802D11241F
:101A6000891B8F5F0895CF9390910D01E8E8F1E015
:101A700080E0981719F011928F5FFBCFC0E00E94B1
:101A8000290DC81750F4EC2FF0E0EE0FFF1FEC56B5
:101A9000FE4F11821082CF5FF2CF10927503109229
:101AA00074031092760310927703109278031092C9
:101AB000790310922E04CF910895EDE0F1E082E0D9
:101AC000808386E0818381E090E093838283E2E1FA
:101AD000F4E0918380838FEF82838CE38383158E80
:101AE000168E0C94330DFC01DB0112968D919C91A6
:101AF00013979383828387E491E091838083149684
:101B00008C911497848315968D919C91169796834A
:101B1000858317968D919C91189790878783199646
:101B20008D919C911A97928781871B968D919C919C
:101B30001C97948783871D968D919C911E979687FD
:101B400085871F968D919C915097908B8787519692
:101B50008D919C915297928B818B53968C91539738
:101B6000838B54968C91848B08952F923F924F9241
:101B70005F926F927F928F929F92AF92BF92CF921D
:101B8000DF92EF92FF920F931F93CF93DF93CDB726
:101B9000DEB72E970FB6F894DEBF0FBECDBF8B8396
:101BA0006983B42E2D8318870F8376013401462E66
:101BB000660F5508C82E880FDD08AA2009F441C019
:101BC000A22EA394A39422E0240F2B87A2014150BC
:101BD00051095A874987B601615071097E876D871F
:101BE000160172E0270E311C41010CEF0B0D020DA6
:101BF000132D111D801691065CF420E04A2D698595
:101C00007A85C4010E942D0B8FEF881A980AF2CFB3
:101C1000EA2DE750FF0B8F018D859E85FB858F0F89
:101C2000911D980141E0420152E0850E911CB401E2
:101C300004970E94980C980142E0B401C1010E94EF
:101C4000980C03E02D814B2DB201C6010E942C0C93
:101C5000B201695F7F4F4B2DC6010E94B904EF812D
:101C6000F8852481358181E090E0821B930B220F5F
:101C7000331F220F331F821B930B8B0D911D9695E3
:101C80008795C80ED91EF701D686C586D486C38629
:101C9000F2E04F0E511CF701508A47866F8178851C
:101CA000C7010E9495066114710409F4F2C0EB802B
:101CB000F9EFEF0EEB0C098121E06216710409F4D3
:101CC00042C00D5F002E000C110B8FEF9FEF6A9446
:101CD000672811F081E090E05801A80EB91ECE2CC3
:101CE0000E2C000CDD08A6014F5F5F4F460162E03D
:101CF000860E911CA016B10644F10A151B0509F0C9
:101D000083C0481559050CF4A4014F5F4E19B80162
:101D1000C6012E960FB6F894DEBF0FBECDBFDF9181
:101D2000CF911F910F91FF90EF90DF90CF90BF90D8
:101D3000AF909F908F907F906F905F904F903F906B
:101D40002F900C94B9040C5FBDCF38019C2D8D2DC4
:101D50006A01A401892E982EC4018C199D099C87C3
:101D60008B87F801EA19FB09FA87E9872A014C18E1
:101D70005D0893012A193B093C832B83BA0168193A
:101D800079097E836D83C301801B910B9E878D87AC
:101D900060167106E1F1F8013197F887EF8375015C
:101DA000312C212C1A8219822F8138852E153F055E
:101DB0008CF189819A8169857A850E94632D9B01C6
:101DC0002C0D3D1DC1016B817C810E94632DCB01D7
:101DD0008C0D9D1D49815A816B857C85460F571F4F
:101DE0005A834983240C351C821793071CF0582F03
:101DF000C901252F41E0420F481BB7010E94B904D9
:101E00007FEFE71AF70AD0CF35015801A5CF7886C2
:101E10006F82C5CFC701801B910BED81FE818E9F24
:101E200080018F9F100D9E9F100D1124C7018A19EC
:101E30009B09849D5001859DB00C949DB00C11248C
:101E40006E147F0434F1C8016D857E850E94632D78
:101E50009B01280D391DC5016B817C810E94632D7A
:101E6000CB018C0D9D1D4D815E81040F151FA40CAF
:101E7000B51C821793071CF0582FC901252F41E08C
:101E8000420F481BB7010E94B9045FEFE51AF50A3B
:101E9000D7CF2E960FB6F894DEBF0FBECDBFDF9121
:101EA000CF911F910F91FF90EF90DF90CF90BF9057
:101EB000AF909F908F907F906F905F904F903F90EA
:101EC0002F90089590E080E008958F929F92AF92B6
:101ED000BF92EF92FF920F931F93CF93DF93CDB7F3
:101EE000DEB7A1970FB6F894DEBF0FBECDBF7C0161
:101EF000FA01CB0119A2223008F42AE08E010F5D0D
:101F00001F4F822E912CB12CA12CBF01A501940151
:101F10000E941B2BF901CA016A304CF5605DD801A3
:101F20006E938D01232B242B252B79F790E080E0F5
:101F3000109761F0FD0101900020E9F73197AF01A2
:101F40004A1B5B0BBD01C7010E94A306A1960FB6F9
:101F5000F894DEBF0FBECDBFDF91CF911F910F91DF
:101F6000FF90EF90BF90AF909F908F900895695C25
:101F7000D6CFFB0101900020E9F73197AF01461B56
:101F8000570B0C94A3060F931F93CF93DF93EC0191
:101F900088819981009759F02A813B81261737075C
:101FA00030F081E0DF91CF911F910F9108958B0167
:101FB0006F5F7F4F0E94A22E009759F0998388830C
:101FC0001B830A832C813D81232B59F7FC0110824E
:101FD000E8CF80E0E7CFEF92FF920F931F93CF936C
:101FE000DF936115710541F480E0DF91CF911F917E
:101FF0000F91FF90EF90089541155105B1F07B01CD
:10200000EC010C811D81040F151FB8010E94C30F44
:10201000882351F3288139818C819D81B701820FFA
:10202000931F0E94682F1D830C8381E0DECFCF9326
:10203000DF93EC0188819981009711F00E94192E9D
:10204000198218821D821C821B821A82DF91CF9115
:102050000895CF93DF93EC01FB0101900020E9F795
:102060003197AF01461B570B0E94EB0F811103C044
:10207000CE010E941710CE01DF91CF910895EF920B
:10208000FF920F931F93CF93DF93EC017B018A01A3
:10209000BA010E94C30F81110BC0CE010E9417101C
:1020A000CE01DF91CF911F910F91FF90EF90089596
:1020B0001D830C83B701888199810E94682FF0CF1E
:1020C000FB0101900020E9F73197AF01461B570B48
:1020D0000C943F100F931F93CF93DF93CDB7DEB7D0
:1020E00029970FB6F894DEBF0FBECDBF8C01862FA7
:1020F000F8011182108213821282158214824AE042
:10210000BE016F5F7F4F90E00E944027BE016F5F6E
:102110007F4FC8010E94601029960FB6F894DEBF69
:102120000FBECDBFDF91CF911F910F910895FB019D
:10213000DC0111961C921E9213961C921E9212970D
:1021400015961C921E9214978617970749F0608186
:1021500071816115710521F0448155810C943F1006
:102160000895FC011182108213821282158214825A
:10217000FB0101900020E9F73197AF01461B570B97
:102180000C943F10FC0180819181009711F00C9418
:10219000192E08952F923F924F925F926F927F92E5
:1021A0008F929F92AF92BF92CF92DF92EF92FF9267
:1021B0000F931F93CF93DF93CDB7DEB7C354D109ED
:1021C0000FB6F894DEBF0FBECDBF2C01662EB72E22
:1021D000742E24962FAF2497B701CE0146960E9405
:1021E000730DF80122803380B201CE01C7960E94A0
:1021F0009710872D880F880F870D825F22968FAFEB
:102200002297B201CE01C1960E9497108DA98E5FD0
:10221000462C5B2CF201B12C24813581A9014E5F43
:102220005F4F8417150609F010F482E0820FB39413
:1022300036967B10F1CF92E0980F990F990F81504D
:10224000980F23969FAF2397BE016A5E7F4FCE0102
:1022500001960E94730D21963FAE2EAE219783E525
:1022600091E09EAF8DAFBE01695C7F4FCE018B9632
:102270000E94971090E4692E712C2296FFAD229750
:102280006F1A71087594679430E8232E312C2396C9
:102290008FAD2397281A310837FE03C09FEF291A04
:1022A000390A35942794912C812CA12CFE0131966A
:1022B0006F01CE01CD967C018E01055D1F4F2296E8
:1022C0002FAD229723964FAD2397662D822D0E9426
:1022D000B50DC8010E94C2108301055F1F4F712C0C
:1022E00094E0290E311C3CA22BA23AA229A21EA3E3
:1022F0000DA32496EFAD24976DE571E0E71102C0C0
:102300006BE571E0CE0101960E94B110F2014481AB
:10231000558160817181CE0101960E94EB0F811180
:1023200004C0CE0101960E941710BE016F5F7F4F5F
:10233000CE0146960E949506CE0101960E94C210DB
:1023400073940B5F1F4FF6E04F0E511C7B10CBCFE9
:10235000CE01C1960E94C210CE01C7960E94C21043
:10236000CD5BDF4F0FB6F894DEBF0FBECDBFDF9160
:10237000CF911F910F91FF90EF90DF90CF90BF9082
:10238000AF909F908F907F906F905F904F903F9015
:102390002F900895EF92FF920F931F93CF93DF93A7
:1023A000EC01198218821B821A821D821C8261151F
:1023B000710509F18B01CB010E942C277C01BC0126
:1023C000CE010E94C30F811109C0CE01DF91CF91D0
:1023D0001F910F91FF90EF900C941710FD82EC82EB
:1023E000B80188819981DF91CF911F910F91FF9062
:1023F000EF900C942527DF91CF911F910F91FF90C3
:10240000EF9008950F931F93CF93209115049CE3B1
:10241000921B981327C0C62F062F10E00E5E1B4F8D
:1024200086E0F80184830E94CD2622E030E040E07F
:1024300050E00E94B22A21E0672B682B692B09F03B
:1024400020E0F801208BC093140480910F0190913B
:102450001001029739F086E692E0CF911F910F911B
:102460000C94A109CF911F910F9108958F929F9283
:10247000AF92BF92CF92DF92EF92FF92CF93DF9312
:10248000C2E1D4E085E0C82ED12CE12CF12C92E001
:10249000892E912CA12CB12C8C81811118C00E9405
:1024A000CD26A70196010E94B22A6C5F7F4F8F4F05
:1024B0009F4F6C830E94CD26A50194010E94B22AF1
:1024C00021E0672B682B692B09F020E0288B2196EF
:1024D00084E0CE31D80701F7DF91CF91FF90EF90E4
:1024E000DF90CF90BF90AF909F908F900895CF9244
:1024F000DF92EF92FF921F93CF93DF93EC018091D5
:10250000740390917503883E934008F070C010E00A
:1025100020910D01121768F0A8E8B1E0FD0130E04C
:1025200090E080E0231759F14191840F911D3F5FA6
:10253000F9CF80910E0190E001966C01092E000CFC
:10254000EE08FF080197B1F00E94CD26A701960181
:1025500021503109410951090E94B22ADC01CB0105
:102560000196A11DB11DE12FF0E0E857FE4F8083D9
:102570001F5FCECF81E090E0A0E0B0E0F4CF482F25
:10258000421B550BFA01EE0FFF1FEC56FE4F8081E8
:10259000918101969183808380E050E040E028178C
:1025A00029F09D91490F511D8F5FF9CF80917603DE
:1025B00090917703A0917803B0917903840F911DD6
:1025C000A11DB11D8093760390937703A0937803A8
:1025D000B0937903219780917403909175030196CC
:1025E0009093750380937403209709F088CF0E941D
:1025F000361280912F04882351F080919803909196
:10260000990366E070E00E944F2D892B89F4809138
:102610000F0190911001029759F086E692E0DF9148
:10262000CF911F91FF90EF90DF90CF900C94A10974
:10263000DF91CF911F91FF90EF90DF90CF900895A1
:102640002F923F924F925F926F927F928F929F92C2
:10265000AF92BF92CF92DF92EF92FF920F931F93B0
:10266000CF93DF93CDB7DEB7A5970FB6F894DEBF53
:102670000FBECDBF3C01562E7DA3442E2AA31CA322
:102680000BA32DB63EB6842F90E05C0121E0A21A88
:10269000B10826E0289FA001299F500D112459A3BD
:1026A00048A38DB79EB7841B950B0FB6F8949EBFB9
:1026B0000FBE8DBFEDB7FEB731966F018F014F0191
:1026C00063E871E0C4010E94B110F1E0AF1AB108F3
:1026D00026E0820E911C3FEFA316B30689F7952CD6
:1026E000A52CBDA0F50161915F01CE0101960E946C
:1026F0006A10F80180819181009709F456C06981C0
:102700007A816115710509F44EC0428153812D8192
:102710003E814217530708F446C00E94682F8D81FE
:102720009E81F801958384831E821D82CE010196CD
:102730000E94C2100A5F1F4F8A2D8919841590F2DA
:10274000B701CE0101960E94730DEBA1FCA182811D
:1027500093819F8F8E8F83E591E09D8F8C8FB30146
:10276000CE0146960E9497109E012F5F3F4F790140
:102770008E01045E1F4F2AA1442DB601CE0146965C
:102780000E94CA10CE0146960E94C21008A119A14B
:102790000C0D1D1D0C151D05D1F006501109C801A9
:1027A0000E94C210F7CF0E94192E89819A81F801E8
:1027B000918380838B819C81938382838D819E8191
:1027C000958384831A8219821C821B82ADCF0FB637
:1027D000F8943EBE0FBE2DBEA5960FB6F894DEBF90
:1027E0000FBECDBFDF91CF911F910F91FF90EF9062
:1027F000DF90CF90BF90AF909F908F907F906F9021
:102800005F904F903F902F9008952F923F924F925C
:102810005F926F927F928F929F92AF92BF92CF9270
:10282000DF92EF92FF920F931F93CF93DF93CDB779
:10283000DEB7A4970FB6F894DEBF0FBECDBFD82E7B
:10284000962E822EFC8AEB8A642F440F770B880B1E
:10285000990B0E94A32920E030E040EE50E40E9452
:10286000BE2B2B013C01B501BB0C880B990B0E94C0
:10287000A3299B01AC01C301B2010E94DE2920E023
:1028800030E044E352E40E944D2B0E94302C8B0137
:10289000882021F000271127061B170BEC2CF12CA8
:1028A000C701880F991F8E9DB0018F9D700D9E9D51
:1028B000700D1124072E000C880B990B0E94A32980
:1028C0000E94B32C0E94372C262E312C91012E19F8
:1028D0003F0937FF02C02F5F3F4F35952795319550
:1028E00021953109DA94D20E9A94290D822F220F64
:1028F000990B9E8B8D8BAD2DDD0CBB0BB88FAF8BE9
:10290000EDB7FEB7FA8FE98F669570E0A60FB71F97
:10291000BC8FAB8F860F971F9E8F8D8FCE01019638
:102920009A8B898BD801A859BE4FB8A3AF8FCB0122
:10293000770FAA0BBB0B89A39AA3ABA3BCA3AF8D44
:10294000B8A10A171B0709F455C0B801012E000CE5
:10295000880B990B0E94A32920E030E04EE852E456
:102960000E94DE2920E030E44EE755E40E94BE2BB1
:102970006B017C0169A17AA18BA19CA10E94A32972
:102980002B013C01C701B6010E94B92B4B015C0130
:10299000C701B6010E94A52C6B017C01A501940121
:1029A000C301B2010E94DE290E94302C8B8D9C8DC8
:1029B000860F911D67FD9A95E989FA899183808335
:1029C000A7019601C301B2010E94DE290E94302CAA
:1029D0008D8D9E8D860F911D67FD9A95A989BA8967
:1029E00013969C938E931297065A1F4F1496BA8B88
:1029F000A98BA5CF2B813C8149815A816F81788534
:102A00008D819E810E94560B2F8138854D815E817C
:102A10006B857C8589859A850E94560B2B853C8524
:102A200049855A856F8578898D859E850E94560BCC
:102A30002F8538894D855E856B817C8189819A815E
:102A40000E94560B0FB6F894DEBF0FBECDBF9101AA
:102A50002450310937FF02C02F5F3F4F359527952E
:102A60008F89988D820F931F0196AB89BC891E9622
:102A70009C938E931D971C969C938E931B978D8988
:102A80009E89820F931F019650969C938E931F9759
:102A90000E94CD2628E030E040E050E00E94B22ABB
:102AA000FB01EE0FFF1FEA5AFD4F659174918B8970
:102AB0009C89A4960FB6F894DEBF0FBECDBFDF9100
:102AC000CF911F910F91FF90EF90DF90CF90BF902B
:102AD000AF909F908F907F906F905F904F903F90BE
:102AE0002F900C94C6082F923F924F925F926F9254
:102AF0007F928F929F92AF92BF92CF92DF92EF928E
:102B0000FF920F931F93CF93DF93CDB7DEB7C357D9
:102B1000D1090FB6F894DEBF0FBECDBF80917A0306
:102B200080937B030E94B90980937A0380E0E4E3F9
:102B3000F4E081118FEF002481938193819381933D
:102B40000394D1F710927D0310927C0310927F03BF
:102B500010927E0302E114E065961FAF0EAF6597F9
:102B6000F801848118160CF0A6C081508483319638
:102B700014E0EE31F107A9F700911204109113044B
:102B80000115110509F099C064E378E0CE0146967D
:102B90000E94730DBE016A5E7F4FCE0101960E94B6
:102BA000730DE0EBF2E065917491CE018B960E947B
:102BB000CA118FE290E09F878E879D878C8782E184
:102BC00090E0998B888BBE01655D7F4FCE010196A9
:102BD0000E949506CE018B960E94C210BE016A5ECD
:102BE0007F4FCE0101960E94730DE2EBF2E06591FA
:102BF0007491CE018B960E94CA1182E290E09F8769
:102C00008E879D878C8787E190E0998B888BBE01AA
:102C1000655D7F4FCE0101960E949506CE018B9691
:102C20000E94C210BE016A5E7F4FCE0101960E94D3
:102C3000730DE4EBF2E065917491CE018B960E94E6
:102C4000CA1180E290E09F878E879D878C8781E202
:102C500090E0998B888BBE01655D7F4FCE01019618
:102C60000E949506CE018B960E94C210BE016A5E3C
:102C70007F4FCE0101960E94730DE6EBF2E0659165
:102C80007491CE018B960E94CA1186E390E09F87D3
:102C90008E879D878C878BE290E0998B888BBE0115
:102CA000655D7F4FCE0101960E949506CE018B9601
:102CB0000E94C21010C180E059CF0130110509F007
:102CC000C8C164E378E0CE0146960E94730D20905F
:102CD0004B0830904C084090140410910E01609104
:102CE0000D01CE018B960E946A106FE571E0CE0156
:102CF000C1960E94B110612FCE01C7960E946A1042
:102D000032E2632E712C912C812C042C000C55087E
:102D1000162DBE016A5E7F4F481459040CF420C181
:102D20006596AEADBFAD659714968C9118160CF0F4
:102D300017C1CE0101960E94730D21963FAE2EAEB3
:102D40002197E3E5F1E0FEAFEDAF94EBA92EB12CB6
:102D500023E1C22E8E010F5F1F4F7801045C1F4FCD
:102D60006596AEADBFAD659750962C915097149671
:102D70004C916FE0862D0E9405145FEF851A950A2D
:102D800065966EAD7FAD65976F5F7F4F65967FAF40
:102D90006EAF659774E1670E711C83E0881691042D
:102DA00009F0B6CFBE016A5E7F4FCE0101960E9448
:102DB000730DEAEAF2E065917491CE01CD960E941E
:102DC000CA118AE290E09F878E879D878C8784E274
:102DD00090E0998B888BBE01635C7F4FCE0101969A
:102DE0000E949506CE01CD960E94C210BE016A5E79
:102DF0007F4FCE0101960E94730DECEAF2E06591DF
:102E00007491CE01CD960E94CA1182E290E09F8714
:102E10008E879D878C8789E290E0998B888BBE0195
:102E2000635C7F4FCE0101960E949506CE01CD9640
:102E30000E94C210BE016A5E7F4FCE0101960E94C1
:102E4000730DEEEAF2E065917491CE01CD960E9489
:102E5000CA1187E290E09F878E879D878C878EE2DC
:102E600090E0998B888BBE01635C7F4FCE01019609
:102E70000E949506CE01CD960E94C210CE01C79643
:102E80000E94C210CE01C1960E94C210CE018B9644
:102E90000E94C2108091150418160CF0D8C0815001
:102EA0008093150460E086E00E94021261E088E0F1
:102EB0000E94021262E08CE00E94021280911504CE
:102EC000811109C08091120490911304019690938E
:102ED000130480931204009112041091130405301E
:102EE000110531F48091740390917503892BE1F4FD
:102EF00088E00E94C109882311F40C940321011574
:102F0000110511F40C9403210150110910931304BD
:102F1000009312048091120490911304019711F010
:102F20000C9413210E945D0D0E94EF04CD58DF4FD9
:102F30000FB6F894DEBF0FBECDBFDF91CF911F91CA
:102F40000F91FF90EF90DF90CF90BF90AF909F9048
:102F50008F907F906F905F904F903F902F9008954B
:102F6000CE0101960E94730D27963FAE2EAE279795
:102F7000E3E5F1E02596FFAFEEAF2597481459043D
:102F80000CF45EC0F6E0F89DB001F99D700D1124BF
:102F90002BE230E02C0F3D1F620F731FCE01CD9648
:102FA0000E94971022969FAD22978FEF890F692F6D
:102FB000660F660F690F860F682F70E090E080E063
:102FC0000E94A3299B01AC0160E070E088E991E4D4
:102FD0000E944C2B20E030E040E05FE30E94DE29BD
:102FE0006B017C01612F110F770B880B990B0E94ED
:102FF000A3299B01AC01C701B6010E944D2B0E9481
:10300000302C70937F0360937E0345E150E0509332
:103010007D0340937C03BE01635C7F4FCE018D5BDB
:103020009F4F0E94950603E023E143E16FE070E0CB
:10303000C3010E942C0CCE01CD960E94C2109DCEE1
:1030400063E871E0CE01CD960E94B110ABCF80E075
:1030500027CF0230110509F06FC061E671E0CE01A3
:1030600046960E94B11066E671E0CE014C960E9431
:10307000B1106AE671E0CE0182960E94B11064E35D
:1030800078E0CE0101960E94730D80914B089091DB
:103090004C0821969FAF8EAF219783E591E09EAFBC
:1030A0008DAFD0900F016FE671E0CE018B960E943C
:1030B000B110DE0111967D018E01035C1F4F2D2D95
:1030C00043E0BE016A5E7F4FCE018B960E94CA101C
:1030D000CE018B960E94C21062E080910F010E9487
:1030E000CC09082F10E01093100100930F0188E025
:1030F0000E94C109811105C084E00E94C109882392
:1031000061F082E0012B09F081E0109280031092BF
:103110008103813069F480938003CE0182960E94FE
:10312000C210CE014C960E94C210CE014696C0CD70
:1031300081E080938103F1CF0330110509F061C074
:1031400088E0EBE1F1E0DE01569601900D928A9560
:10315000E1F764E378E0CE0101960E94730D80915F
:103160004B0890914C0821969FAF8EAF219783E535
:1031700091E09EAF8DAF80910D015E01B6E1AB0E87
:10318000B11CF50130E020E065019191891331C057
:10319000922E65E771E0CE018B960E94B110FE0180
:1031A00031967F018E01035C1F4F292D48E0B50148
:1031B000CE018B960E942013CE018B960E94C210E6
:1031C00020910D0190E080E0D5013D915D01231734
:1031D00029F0019688309105B9F78FEF67E00E94DA
:1031E000CC098C0D9D2D911DFC01808180930D01DA
:1031F00072CE2F5F3F4F2830310539F699249A94CB
:10320000C8CF0430110509F061C087E0E3E2F1E0C6
:10321000DE01569601900D928A95E1F764E378E01D
:10322000CE0101960E94730D80914B0890914C083D
:1032300021969FAF8EAF219783E591E09EAF8DAF32
:1032400080910E015E01F6E1AF0EB11CF50130E098
:1032500020E065019191891331C0922E6AE771E0F7
:10326000CE018B960E94B1108E010F5F1F4F780127
:10327000045C1F4F292D47E0B501CE018B960E94BB
:103280002013CE018B960E94C21020910E0190E077
:1032900080E0D5013D915D01231729F0019687302B
:1032A0009105B9F78FEF66E00E94CC098C0D9D2D3A
:1032B000911DFC01808180930E010DCE2F5F3F4F49
:1032C0002730310539F699249A94C8CF0530110575
:1032D00009F00ECEF0902E041F140CF05EC09091F9
:1032E0000D01E8E8F1E080E0981719F011928F5F86
:1032F000FBCFE12C0E94290DE816D0F40E2D10E032
:10330000000F111F0C561E4FD8016D917C9190E05B
:1033100080E00E94A1292DEC3CEC4CE45FE30E948C
:10332000DE290E94372CF80171836083E394E2CF99
:10333000609174037091750390E080E00E94A12970
:103340002DEC3CEC4CE45FE30E94DE290E94372C1C
:1033500070937503609374036091760370917703A3
:1033600080917803909179030E94A1292DEC3CEC87
:103370004CE45FE30E94DE290E94372C60937603C1
:10338000709377038093780390937903FA94F09283
:103390002E04F11040C10E94330D84E00E94C10947
:1033A000882309F441C08091740390917503892B9F
:1033B00081F5809164008E7F8093640080917A0013
:1033C000806480937A0080917A0086FDFCCF009122
:1033D0007800109179000E94D006AB01BC01C801B1
:1033E000B0E0A0E0DC01992788278C019D01040F43
:1033F000151F261F371FC901B801209164002160E5
:1034000020936400611571058105910511F00E94FA
:103410001C278091740390917503883E934020F49B
:1034200081E090E00E94771284E00E94FA098823EC
:1034300009F4F9C080912F048E310CF0F2C08F5F37
:1034400080932F0484E00E94FA098823A9F08091D8
:103450002F048E318CF080E40E94FA09882309F44D
:10346000E5C08AE090E02091740330917503283E16
:10347000334010F40E94771280E80E94C10988232B
:1034800009F4D7C081E090E0909333048093320434
:1034900080910F0190911001029709F4D2C688E83B
:1034A00092E00E94A109209132043091330480916E
:1034B00031042130310509F0D2C0865F8093310498
:1034C00080913104803C0CF0D0C0109233041092F3
:1034D00032048FEB8093310480E80E94C109882375
:1034E00009F4CCC0809131048F5F8093310464E390
:1034F00078E0CE0146960E94730D60914B08709162
:103500004C0867967FAF6EAF679770910E01A496D7
:103510007FAFA49730900D01BE016A5E7F4FCE0150
:1035200001960E94730D67968EAD9FAD6797639667
:103530009FAF8EAF639783E591E061969FAF8EAFAB
:103540006197A4966FADA497CE018D5B9F4F0E94AB
:103550006A10632DCE018B960E946A10BE01655DD4
:103560007F4FCE01CD960E94971063E771E0CE01A8
:10357000CD960E9429108C0129964EAD5FAD2997FA
:1035800025966EAD7FAD25970E94EB0F811103C08C
:10359000C8010E941710B801CE01875B9F4F0E949F
:1035A0009710912C812CA12CDE0111966D01FE014A
:1035B000E15BFF4F7F018E01075B1F4F20E44DE26F
:1035C00060E080E00E94B50DC8010E94C210CE01EB
:1035D000CD960E94C210CE018B960E94C210CE01E1
:1035E0008D5B9F4F0E94C210F4E0F31508F450C0A9
:1035F00003E0B4E1DB2E301608F050C011E03116C4
:1036000009F410C122E0EAE1DE2E321609F446C0C8
:10361000FCE0DF2E43C084E00E94FA098111BBCE9A
:10362000BCCE8EE10DCF10922F040CCF81E090E044
:103630001ACF80E10E94C109882309F434CF82E0C7
:1036400090E0909333048093320480910F01909125
:103650001001029709F023CF8091310404C0223079
:10366000310509F02DCF8A5029CF87FD35CF109233
:10367000330410923204109231042ECF80E10E9464
:10368000C109882309F433CF8091310481502DCFB3
:1036900036E0A1E1DA2E331508F4BACF2D2D30E053
:1036A00089E290E0B9010E94632DA6966FAFA697BC
:1036B000432D631508F4462F8DE290E04D9D80194F
:1036C0009109112461507109861B970B97FD019692
:1036D00095958795AB968FAFAB9768E871E06B9641
:1036E0007FAF6EAF6B97212C2F5F3F4FC901330F18
:1036F000AA0BBB0BAF968CAF9DAFAEAFBFAFAF9772
:1037000091E09D0DE0969FAFE0970D2D10E030E029
:1037100020E0E4960CAF1DAF2EAF3FAFE49732141C
:1037200009F47AC1822DA6966FADA6970E94432D0B
:103730008C01AF966CAD7DAD8EAD9FADAF970E9405
:10374000A3294B015C01602F70E090E080E00E94B3
:10375000A3299B01AC01C501B4010E94DE2920E030
:1037600030E040E151E40E944D2B0E94372C6E96D0
:103770006FAF6E97AB962FADAB97E0963FADE097EE
:10378000319F200D1124A0962FAFA0976596AEAD66
:10379000BFAD659714968C9118160CF046C0BE010B
:1037A0006A5E7F4FCE0101960E94730D6796EEAD63
:1037B000FFAD6797FEA7EDA703E511E01CA70BA7D8
:1037C0006AE5A62EB12CCD2C9E012F5F3F4F7901CB
:1037D0008E01055D1F4F6596AEADBFAD65975096E6
:1037E0002C91509714964C916E966FAD6E97A09653
:1037F0008FADA0970E940514239465962EAD3FAD22
:1038000065972F5F3F4F65963FAF2EAF65976B96DD
:103810004EAD5FAD6B974F5F5F4F6B965FAF4EAF37
:103820006B977DCF19E2D12E39CFA496BFADA49767
:10383000BA3020F011E0E6E0E31508F010E0BE0138
:103840006A5E7F4FCE0101960E94730D67962EAD82
:103850003FAD679721963FAF2EAF219743E551E0EB
:103860005EAF4DAF6B96AEADBFAD6B976C91611116
:1038700089C060E871E0CE018B960E94B110EFA480
:10388000F8A86E96BFAD6E976B2FBB0F770B880BAA
:10389000990B0E94A3294B015C01E4966CAD7DADB0
:1038A0008EAD9FADE4970E94A1292B013C01A0960B
:1038B000EFADA0976E2FEE0F770B880B990B0E9440
:1038C000A329AA966CAF7DAF8EAF9FAFAA971123A5
:1038D00009F45DC020E030E040E850E4C301B201EB
:1038E0000E944C2B20E030E040E05FE30E94DE29A4
:1038F000A50194010E944D2B0E94302C4B0120E029
:1039000030E040E850E4F2E0EF16F10420F020E06F
:1039100030E040E151E4C301B2010E944C2B20E0B1
:1039200030E040E05FE30E94DE29AA962CAD3DAD79
:103930004EAD5FADAA970E944D2B0E94302C7F8721
:103940006E877D876C87998A888ABE01655D7F4F07
:10395000CE0101960E9495066E960FAD6E97602F70
:10396000000F770B01E02D2D4D2DA0961FADA097D8
:10397000812F110F990B0E942C0CCE018B960E9467
:10398000C2103ACFCE018B960E946A1078CF6FEFAB
:103990006E0D8E2D880F880FE80EE60E6E2D70E0EE
:1039A00090E080E00E94A3299B01AC01C301B20119
:1039B0000E944C2B20E030E040E05FE30E94DE29D3
:1039C000AA962CAD3DAD4EAD5FADAA970E944D2B92
:1039D0000E94302C70937F0360937E0320E030E0E0
:1039E00040EE50E4C301B2010E944C2B20E030E0D5
:1039F00040E05FE30E94DE29A50194010E944D2B67
:103A00000E94302C70937D0360937C03BE01655D42
:103A10007F4FCE01CD969ECF80913104803C0CF437
:103A20002BC164E378E0CE0146960E94730D0091AD
:103A30004B0810914C080E94290DB82E709031044B
:103A4000BE016A5E7F4FCE0101960E94730D2196E2
:103A50001FAF0EAF219783E591E09EAF8DAFECEAEB
:103A6000F2E065917491CE018B960E94CA1152E0EA
:103A7000852E912CA12CBE016F5F7F4F6B01CE0173
:103A8000CD967C018E01055D1F4F20E442E5672D38
:103A90008EE20E94B50DC8010E94C2102B2D30E0AD
:103AA0008FE490E0821B930BB9010E94632D6B01A0
:103AB000562F04E911E065961FAF0EAF6597F80128
:103AC00010E0F12CE12CB11641F0819191918E150D
:103AD0009F0508F07C011F5FF6CF412F1C9D400D14
:103AE00011244D5F82E590E0841B910902E08F3F35
:103AF0004FEF940734F097FD01969595879502E076
:103B0000080F5111A7C0B901330F880B990B0E9400
:103B1000A3299B01AC0160E070E084EA92E40E947A
:103B2000BE2B1B012C0181E0B12CA12C970150E090
:103B300040E06D962CAF3DAF4EAF5FAF6D97272D38
:103B4000770C330BA901405C5F4F6F965FAF4EAFB0
:103B50006F97202F30E0225D3F4FA901330F660B96
:103B6000770BA3964CAF5DAF6EAF7FAFA397682F77
:103B700070E0A5967FAF6EAFA597A11608F07CC048
:103B80006596AEADBFAD65976D917D916596BFAF02
:103B9000AEAF659790E080E00E94A1296B017C01A7
:103BA0006D966CAD7DAD8EAD9FAD6D970E94A129D8
:103BB0009B01AC01C701B6010E94BE2B20E030E0A2
:103BC00044E552E40E94DE290E94372CD62E66235B
:103BD00009F44EC06F968EAD9FAD6F978D19910908
:103BE000FC0132976796FFAFEEAF6797A3966CAD77
:103BF0007DAD8EAD9FADA3970E94A3293B014C01E3
:103C0000B5010B2C000C880B990B0E94A329A20173
:103C100091010E94DE299B01AC01C401B3010E9405
:103C20004D2B0E94302C7B01A5968EAC9FACA597A6
:103C3000860E971EE814F904DCF421E04D2D6796FA
:103C40006EAD7FAD6797C7010E942D0BFFEFEF1A96
:103C5000FF0AF0CFB60177276F5F7F4F072E000C6A
:103C6000880B990B0E94A3291B012C018C2D5CCF82
:103C70000FEFA01AB00A81CF8091310487FF1BC2D9
:103C800064E378E0CE0146960E94730D00914B08E4
:103C900010914C0820907603309077034090780381
:103CA000509079036090740370907503B0900D018B
:103CB00040910E01B49E402D11246A964FAF6A9731
:103CC0000E94290D64968FAF6497809131048F5BB9
:103CD00066968FAF6697BE016A5E7F4FCE010196F2
:103CE0000E94730D21961FAF0EAF219783E591E0DF
:103CF0009EAF8DAFEEE7F2E065917491CE018B96A9
:103D00000E94CA1188248394912CA12C9E012F5FBC
:103D10003F4F6901AE01435C5F4F7A018E01055D43
:103D20001F4F20E442E566966FAD66978EE20E94D3
:103D3000B50DC8010E94C21066965FAD6697E52E6C
:103D4000550FFF086BE0E60EF11C64967FAD64979B
:103D5000872E912CD12C713138F0C401429797FDF8
:103D6000019695958795D82E82E390E09CA38BA32E
:103D70009AA389A3FEA2EDA2E0E8F2E06591749116
:103D8000CE0146960E94C60860E871E06114710495
:103D9000D9F0C201B1010E94A1291B012C01B3017C
:103DA000072C000C880B990B0E94A3299B01AC01E6
:103DB000C201B1010E94BE2B8E01055D1F4F21E0A3
:103DC0004CEF0E946326B801CE0101960E94B1100B
:103DD000BE016F5F7F4FCE018B960E94971062E805
:103DE00071E0CE018B960E942910BC01CE0146964F
:103DF0000E949506CE018B960E94C210CE010196BC
:103E00000E94C210E2E8F2E065917491CE014696FC
:103E10000E94C6081CA61BA61EA61DA618AA1FA6A1
:103E20004AE0BE016F5F7F4FC3010E944027BE0181
:103E30006F5F7F4FCE018B960E946010BE01655D63
:103E40007F4FCE0101960E94971062E871E0CE018B
:103E500001960E942910BC01CE0146960E9495064B
:103E6000CE0101960E94C210CE018B960E94C21014
:103E7000E4E8F2E065917491CE0146960E94C6088E
:103E80004B2D50E070E060E02AE0CE0146960E94A3
:103E9000650FE6E8F2E065917491CE0146960E94C6
:103EA000C6086A968FAD6A97482F50E070E060E0D0
:103EB0002AE0CE0146960E94650F2D2C0D2C000C99
:103EC0003308C1010B968401881599051CF4810102
:103ED000045F1F4F930150E040E069962CAF3DAF67
:103EE0004EAF5FAF699795E2C92EA701FF0C660B35
:103EF000770B6D964CAF5DAF6EAF7FAF6D976B2D4F
:103F000070E06F967FAF6EAF6F978D2C912C8016FF
:103F100091060CF0D0C0F401EE0FFF1FEC56FE4FDF
:103F20006081718190E080E00E94A1292B013C0119
:103F300069966CAD7DAD8EAD9FAD69970E94A1294C
:103F40009B01AC01C301B2010E94BE2B20E030E016
:103F500048EC52E40E94DE290E94372C64966FAF31
:103F60006497C4018219930966E070E00E94632D92
:103F7000C69E5001C79EB00C1124750172E3E70E76
:103F8000F11CBC01990F880B990B0E94A32920E01A
:103F900030E040E650E40E944D2B20E030E040EA63
:103FA00050E40E94DE292B013C016D966CAD7DAD85
:103FB0008EAD9FAD6D970E94A3299B01AC01C301FB
:103FC000B2010E944D2B0E94302C2B01FCA2EBA2CF
:103FD000FAA2E9A27EA36DA36F968EAD9FAD6F97F7
:103FE000880E991E6DE571E09AE08916910414F02F
:103FF00063E871E0CE0146960E94B90F6DE571E06D
:10400000A4E68A16910414F063E871E0CE014696A6
:104010000E94B90F1CA61BA61EA61DA618AA1FA6A5
:104020004AE0BE016F5F7F4FC4010E943527BE0189
:104030006F5F7F4FCE018B960E946010BE01655D61
:104040007F4FCE0146960E949506CE018B960E9428
:10405000C210C501805C9F4F9CA38BA39AA389A328
:104060005EA24DA264E871E0CE0146960E94B90FAF
:10407000B3E4AB0EB11CBCA2ABA2BAA2A9A25EA2D1
:104080004DA264966FAD6497CE0101960E946A10AE
:10409000BE016F5F7F4FCE0146960E949506CE010E
:1040A00001960E94C21066E871E0CE0146960E9419
:1040B000B90FD3942ACF88E00E94FA09882309F423
:1040C0009FC0809130048E3134F08EE180933004B3
:1040D0000E945D0D05C08F5F809330048E31C1F367
:1040E00088E00E94C109882379F00E9436128FE08F
:1040F00080932E0480910F0190911001029721F07E
:1041000088EB92E00E94A10984E00E94FA098823CA
:1041100011F40C946B178091740390917503883E91
:10412000934010F40C946B1764E378E0CE0146964C
:104130000E94730D00914B0810914C08BE016A5EFD
:104140007F4FCE0101960E94730D21961FAF0EAFD7
:10415000219783E591E09EAF8DAFE8E7F2E06591AE
:104160007491CE018B960E94CA11912C812CAA24A5
:10417000A3948E010F5F1F4F68019E01235C3F4F88
:104180007901065D1F4F28E14AE264E18BE20E945B
:10419000B50DC8010E94C210EAE7F2E06591749182
:1041A000C6010E94CA11ECE7F2E065917491CE015C
:1041B00007960E94CA110FE210E01CA30BA31AA3DA
:1041C00009A38FE190E09EA38DA3B601CE01469690
:1041D0000E9495061CA30BA31AA309A384E290E0F6
:1041E0009EA38DA3BE01695F7F4FCE0146960E94BC
:1041F0009506CE0107960E94C210C6010C9458166F
:10420000109230046DCF84E00E94C109882311F41C
:104210000C9494170530110511F40C9494170F5F4A
:104220001F4F0C94861780910F01909110010297F7
:1042300011F40C94941783E099E00E94A1090C9466
:1042400094178091310439C91F920F920FB60F92C3
:1042500011248F939F938091E1009091E100937FCF
:104260009093E10083FF0FC01092E90091E09093DA
:10427000EB001092EC0092E39093ED001092B103EA
:1042800098E09093F00082FF22C093E09093E900C1
:104290009091F200992319F09AE39093E80090919D
:1042A000A203992341F09091A20391509093A2030D
:1042B000911101C05D9A9091B003992341F09091C2
:1042C000B00391509093B003911101C0289A84FFDC
:1042D00018C08091E2008E7E81608093E200809120
:1042E000E1008F7E8093E1008091A3038E7E806148
:1042F0008093A3039F918F910F900FBE0F901F90FB
:10430000189580FFF7CF8091E2008E7E80618093C8
:10431000E2008091E1008E7E8093E1008091A30312
:104320008E7E8160E5CF1F920F920FB60F921124FF
:10433000CF92DF92EF92FF920F931F932F933F93B1
:104340004F935F936F937F938F939F93AF93BF939D
:10435000EF93FF93CF93DF93CDB7DEB76C97DEBFBC
:10436000CDBF1092E9008091E80083FF25C068E08E
:10437000CE0145960E94870682EF8093E8008D89E2
:1043800087FF39C09091E80090FFFCCF982F90767E
:1043900009F034C19E894F89588D2F89F88C91116D
:1043A00031C0803861F58091A1038093F1001092B3
:1043B000F1008EEF8093E8006C960FB6F894DEBFA4
:1043C0000FBECDBFDF91CF91FF91EF91BF91AF9124
:1043D0009F918F917F916F915F914F913F912F911D
:1043E0001F910F91FF90EF90DF90CF900F900FBE35
:1043F0000F901F9018959EEF9093E800C7CF1092F2
:10440000F100D5CF913059F48111D3CF413051050E
:1044100081F68091A1038D7F8093A103CACF933051
:1044200049F48111C6CF4130510519F68091A1039D
:104430008260F2CF953041F48091E80080FFFCCF9C
:1044400020682093E300B5CF963009F0A9C00B8D0A
:104450001C8D22E01092E90010929F0310929E039F
:10446000F2122EC010929D0310929C030E945606D9
:104470001F8299E09983FA8291E09E8390EA98875F
:104480009AEF998720919E0330919F03275F3F4FBA
:104490003C832B838D831092E90010929F0310922E
:1044A0009E0310939D0300939C0349E050E0BE01DE
:1044B0006F5F7F4F80E00E9430060E94560679CFE2
:1044C00010939D0300939C030E943A05DC01129611
:1044D0000D911C910115110509F451C1D801ED91FF
:1044E000FC910480F581E02DBE016B5E7F4FC80119
:1044F0000995009709F03EC1F80100851185EACFC2
:10450000F3E0FF120EC08F89882309F440C0823087
:1045100061F440E867E08BEF98E00E94FD058111AF
:1045200048CF81E28093EB0047CF813029F440E807
:104530006BE08FEE98E0F1CF833099F70E943A0557
:10454000DC011296ED90FC908E010F5F1F4F680109
:10455000E114F10479F0D701ED91FC910680F78127
:10456000E02DB801C7010995080F111DF701E0847E
:10457000F184EECFD8011C92F60101900020E9F7FA
:104580003197BF016C197D0940E0C601C6CF69EDC6
:1045900078E0FB01449150E080E80E94300609CFAA
:1045A000973009F4BECF983021F481E08093F10078
:1045B00000CF993009F0FDCE837009F0B2CFEBE265
:1045C000F1E081E031E096E32191222371F08093C4
:1045D000E9003093EB00DF0111972C912093EC0060
:1045E0009093ED008F5F873079F78EE78093EA0034
:1045F0001092EA008F898093B103DBCE8B8D9C8D66
:104600001092E90010929F0310929E0390939D03D5
:1046100080939C03898D811192C08E899D89913AE6
:1046200049F4813209F07DCF47E050E065E071E068
:1046300080E0B3CF913209F074CF833269F48F896F
:10464000988DB0E0A0E08093010190930201A093C7
:104650000301B0930401ADCE803269F48091E8008B
:1046600082FFFCCF67E085E091E00E9487068BEF38
:104670008093E8009ECE823209F09BCE8F89809392
:104680000C01EEEFFFE7859194918B3F9C4D51F12A
:10469000E0E0F8E08091050190910601A09107010A
:1046A000B0910801803B9440A105B105F1F48091DF
:1046B0000C0180FD1AC0EE3F8AE0F80789F587E714
:1046C00097E791838083809160008093A00388E1C5
:1046D0009BE00FB6F894A895809360000FBE90936E
:1046E000600067CEEEEFFAE0D5CF80819181873709
:1046F000974709F05ECEA89580916000886180930D
:1047000060008091A00380936000EE3F2AE0F207F2
:1047100089F08091FE0A9091FF0A9183808349CEAF
:10472000808191818737980751F29093FF0A809397
:10473000FE0AC5CF1092FF0A1092FE0A3ACE0E94DE
:104740003A05DC0112960D911C910115110509F431
:10475000E8CED801ED91FC910190F081E02DBE01F1
:104760006B5E7F4FC8010995811123CEF80100854A
:104770001185EBCF181619060CF41BCED2CEF1E042
:10478000FF12BECE6DED78E004CF1F920F920FB6F0
:104790000F9211242F933F938F939F93AF93BF93C7
:1047A0008091940390919503A0919603B091970303
:1047B00030918E0323E0230F2D3758F50196A11D6C
:1047C000B11D20938E038093940390939503A0933F
:1047D0009603B093970380918F0390919003A091DB
:1047E0009103B09192030196A11DB11D80938F0397
:1047F00090939003A0939103B0939203BF91AF91D4
:104800009F918F913F912F910F900FBE0F901F900E
:10481000189526E8230F0296A11DB11DD2CF1F9235
:104820000F920FB60F9211242F933F934F935F93E4
:104830006F937F938F939F93AF93BF93EF93FF9368
:1048400080918A0390918B03A0918C03B0918D038A
:10485000892B8A2B8B2B09F440C08091890381110D
:104860000BC088B190E4892788B980918803882398
:1048700019F088B1805888B980918A0390918B0390
:10488000A0918C03B0918D03181619061A061B0609
:104890009CF480918A0390918B03A0918C03B0913A
:1048A0008D030197A109B10980938A0390938B032B
:1048B000A0938C03B0938D03FF91EF91BF91AF91C3
:1048C0009F918F917F916F915F914F913F912F9128
:1048D0000F900FBE0F901F9018950E94F908ECCF13
:1048E000E2EBF3E01382128288EE93E0A0E0B0E006
:1048F00084839583A683B78385E391E09183808346
:104900008FEF9FEF95878487E9E4F8E013821282A6
:1049100083E591E09183808386EB94E0909311048A
:104920008093100480E090E890930F0480930E042D
:1049300046983E9A47983F9AE4E3F8E01382128241
:1049400087E491E09183808384E394E09683858378
:1049500080E890E09087878380E490E09287818769
:1049600085E0848B81E0838B16861586108A1786F6
:104970001486138681E090E0928B818B1482E2E1B1
:10498000F4E0918380838FEF82838CE38383148EA2
:10499000158E168E178E11A210A20895789484B5E4
:1049A000826084BD84B5816084BD85B5826085BD2B
:1049B00085B5816085BD80916E00816080936E00B9
:1049C00010928100809181008260809381008091AB
:1049D000810081608093810080918000816080935C
:1049E000800080919100826080939100809191007D
:1049F000816080939100809190008160809390000D
:104A00008091C10084608093C1008091C100826068
:104A10008093C1008091C10081608093C10080912A
:104A2000C30081608093C3008091C0008260809346
:104A3000C0008091C20081608093C20080917A00A2
:104A4000846080937A0080917A00826080937A00FB
:104A500080917A00816080937A0080917A008068EA
:104A600080937A001092B1031092A1031092A303D5
:104A70008091D70081608093D70080EA8093D8002E
:104A800089B5806189BD89B5826089BD09B400FEA0
:104A9000FDCF61E070E080E090E00E94F50680913B
:104AA000D8008F7C80618093D8008091E000807F67
:104AB0008093E0008091E1008E7E8093E1008DE0A4
:104AC0008093E200559A209A81EC80937C0085B116
:104AD000806F85B984B1877E84B984B1876E84B9CB
:104AE0005E9A5F988AB1806D8AB9769A6E9881B322
:104AF000806F81BB899880B38D7080BB80E58CBD51
:104B000081E08DBD85E090E00E94B4095F9A85E068
:104B100090E00E94B4095E985C98EAE8F8E084911D
:104B20008EBD00000DB407FEFDCF319688E0E73959
:104B3000F807A9F75C9A81E880936400809165008A
:104B40008160809365000E94EF0480E80E94FA096A
:104B50008823A9F05C9885EA8EBD00000DB407FE9D
:104B6000FDCF5C9A2E982F982D98809164008062DA
:104B70008093640081E083BF889513BEFCCF84E0FE
:104B80000E94FA09882309F446C02D9884E80E94FF
:104B9000FA098823D9F02D9A88EC90E00E94B40994
:104BA0002F9882E090E00E949C2A8F3F29F06FEFBF
:104BB00082E090E00E94A42A84EF91E00E94B40970
:104BC0002F9A84E80E94FA098111FBCF84E10E94A8
:104BD000FA098823D9F02D9A88EC90E00E94B40954
:104BE0002E9882E090E00E949C2A882329F060E0C1
:104BF00082E090E00E94A42A84EF91E00E94B40930
:104C00002E9A84E10E94FA098111FBCF88EC90E092
:104C10000E94B409B4CF2D9A82E090E00E949C2AB1
:104C2000882361F13E9A3F9A81E08093930382E367
:104C300090E00E94B4090E94B9098111F8CF81E285
:104C4000809300010E94330D11E0C0E0D0E001E04C
:104C50008FB7F89440919403509195036091960317
:104C6000709197038FBF80919A03882361F010920F
:104C70009A03209769F30E940000EACF10929303F1
:104C80003E983F98D4CF80919B03942F981B892FF7
:104C900090910001891738F48F5F891750F713BF7F
:104CA000889513BEE6CF00939A0340939B038091AF
:104CB0009803909199030196909399038093980398
:104CC0000E947315D6CFEF920F931F93CF93DF936C
:104CD000E80134E047FD34E1042E000C550B57FF8A
:104CE00003C0519541955109E32E022F242FAE01A7
:104CF0000E945A27CE01DF91CF911F910F91EF9023
:104D000008958F929F92AF92BF92CF92DF92EF92CF
:104D1000FF92CF93DF93EC01688179818A819B8137
:104D2000611571058105910521F464E279ED8BE54A
:104D300097E02DE133EF41E050E00E94B22A4901B3
:104D40005A019B01AC01A7EAB1E40E94D12A6B0190
:104D50007C01ACEEB4EFA50194010E94DF2AC60EDF
:104D6000D71EE81EF91EF7FE06C081E0C81AD1085A
:104D7000E10880E8F80AC882D982EA82FB82C7018A
:104D8000B6019F77DF91CF91FF90EF90DF90CF90AA
:104D9000BF90AF909F908F9008958F929F92AF9207
:104DA000BF92CF92DF92EF92FF92609111017091CA
:104DB0001201809113019091140161157105810513
:104DC000910521F464E279ED8BE597E02DE133EF75
:104DD00041E050E00E94B22A49015A019B01AC0116
:104DE000A7EAB1E40E94D12A6B017C01ACEEB4EFDA
:104DF000A50194010E94DF2AC60ED71EE81EF91EE7
:104E0000F7FE06C081E0C81AD108E10880E8F80A78
:104E1000C0921101D0921201E0921301F09214019C
:104E2000C701B6019F77FF90EF90DF90CF90BF90C2
:104E3000AF909F908F90089560931101709312012D
:104E400080931301909314010895FB01DC010590F8
:104E50000D920020E1F70895FC0105900020E9F78C
:104E6000809590958E0F9F1F0895BB274A3031F48F
:104E7000992322F4BDE2909581959F4F0C94412790
:104E8000BB27FB015527AA27880F991FAA1FA41724
:104E900010F0A41B83955051B9F7A05DAA3308F018
:104EA000A95DA193009779F7B111B1931192CB014C
:104EB0000C949129A9E0B0E0E0E6F7E20C94EA2A2C
:104EC0006A01F22EB02E102FFBE3AF2EA01608F4CD
:104ED0001BE31F5F012F27E0AE014F5F5F4F0E9472
:104EE000B928BC018981982F9970913009F43FC08D
:104EF0009BE2E1FC04C09E2D9170E0FC3AC05E2D67
:104F00005071E82FE87083FF46C084E0911101C022
:104F100083E0EF2DE81B8F1508F0E0E0D6018E2F1F
:104F200020E2552351F1992329F0D6019C93C60123
:104F300001966C0196012D5F3F4FE2FE24C08EE486
:104F4000D6018C9391E411969C93119712968C93B1
:104F5000D9018E2F90E281111BC0E20FF32FF11DBA
:104F600010828EEF9FEF2996ECE00C94062B9DE2C9
:104F7000C6CF90E2C4CF2D9381508111FCCFCE0ECD
:104F8000D11CE0E0D0CF8EE6D6018C9391E6DBCF4A
:104F90009D938150E0CF482F447082FF3DC084E054
:104FA000911101C083E08F1510F4EF2DE81BD6019D
:104FB0008E2F20E2552309F1992329F0D6019C93E5
:104FC000C60101966C0196012D5F3F4FE2FE1BC0AA
:104FD00089E4D6018C938EE411968C93119786E424
:104FE00012968C93D9018E2F90E2882309F4B5CFC5
:104FF0009D938150FACF2D9381508111FCCFCE0E1D
:10500000D11CE0E0D9CF89E6D6018C938EE61196CB
:105010008C93119786E6E4CF9B0177FF02C030E0C6
:1050200020E0A1E0B0E0911102C0B0E0A0E0F90101
:105030003196AE0FBF1F8B2C912CBB2009F461C0A1
:105040005401EFEFAE1ABE0AAA0DBB1DFA161B06DD
:1050500019F014F04F2D4A1B511188C0E3FC59C0C0
:105060007601A42FB0E2A1114FC0C40ED11C992328
:1050700009F45BC040E0D6011196F60190836D0102
:10508000552309F448C0012F060F9A81582F5071FB
:1050900084FF03C0913309F4015010160CF047C08F
:1050A000093008F008E0EEE2FE2E5B01A01AB1081C
:1050B00085019194819491082F3F320729F4D601FC
:1050C000FC92F60131966F016217730794F1021793
:1050D00013077CF5DB01A21BB30BAA24A394B12C0C
:1050E000AC0EBD1EAA0DBB1D11968C91215031092D
:1050F000D601119628153905F4F0F60180836D016B
:10510000DBCFB12CA12CA0CFF701B1937F01A1502F
:10511000AACF9111B0CFD601942F50E302C05D9376
:1051200091509111FCCFC40ED11C40E0ACCF01E0F6
:10513000BACF80E3DBCF6217730731F4963388F47C
:10514000953311F4552369F0F6018083FD01842F16
:1051500090E2811108C0A40FB11D1C9290E080E084
:1051600002CF81E3F1CF91938150F3CF911183CF9F
:105170008ACF283008F027E03327DA01990F311D54
:1051800087FD916000966105710539F432602E5FEC
:105190003D9330E32A95E1F708959F3F30F0803842
:1051A0007105610509F03C5F3C5F3D93913008F06B
:1051B0008068911DDF93CF931F930F93FF92EF921F
:1051C000192F987F9695E92F96959695E90FFF27C9
:1051D000EC5DFE4F99273327EE24FF24A701E7015A
:1051E00005900894079428F4360FE71EF81E491F0F
:1051F000511D660F771F881F991F0694A1F7059010
:10520000079428F4E70EF81E491F561FC11D770F9B
:10521000881F991F661F0694A1F70590079428F42C
:10522000F80E491F561FC71FD11D880F991F661FF3
:10523000771F0694A1F70590079420F4490F561F95
:10524000C71FD81F990F661F771F881F0694A9F7DD
:1052500084911095177041F0D695C795579547954D
:10526000F794E7941A95C1F7EAECF0E0689415908A
:10527000159135916591959105907FE27395E118AF
:10528000F10A430B560BC90BD009C0F7E10CF11E14
:10529000431F561FC91FD01D7EF4703311F48A9529
:1052A000E6CFE894015030F0080F0AF40027021707
:1052B00008F4202F2395022F7A3328F079E37D9389
:1052C0002A95E9F710C07D932A9589F6069497955B
:1052D0006795379517951794E118F10A430B560B0C
:1052E000C90BD00998F023957E9173957A3308F015
:1052F00070E37C932013B8F77E9170617D9330F05A
:10530000839571E37D9370E32A95E1F71124EF9083
:10531000FF900F911F91CF91DF91992787FD909575
:105320000895DC01FC01672F71917723E1F7329733
:1053300004C07C916D9370836291AE17BF07C8F370
:105340000895E89409C097FB3EF490958095709578
:1053500061957F4F8F4F9F4F9923A9F0F92F96E9C1
:10536000BB279395F695879577956795B795F11136
:10537000F8CFFAF4BB0F11F460FF1BC06F5F7F4FD3
:105380008F4F9F4F16C0882311F096E911C07723E5
:1053900021F09EE8872F762F05C0662371F096E8EE
:1053A000862F70E060E02AF09A95660F771F881FBD
:1053B000DAF7880F9695879597F908950E94F12955
:1053C0000C94622A0E94542A38F00E945B2A20F032
:1053D000952311F00C944B2A0C94512A11240C940F
:1053E000962A0E94732A70F3959FC1F3950F50E09F
:1053F000551F629FF001729FBB27F00DB11D639F87
:10540000AA27F00DB11DAA1F649F6627B00DA11D2C
:10541000661F829F2227B00DA11D621F739FB00DD2
:10542000A11D621F839FA00D611D221F749F332742
:10543000A00D611D231F849F600D211D822F762FDB
:105440006A2F11249F5750409AF0F1F088234AF0B8
:10545000EE0FFF1FBB1F661F771F881F9150504024
:10546000A9F79E3F510580F00C944B2A0C94962A84
:105470005F3FE4F3983ED4F3869577956795B795AB
:10548000F795E7959F5FC1F7FE2B880F911D9695C5
:10549000879597F9089597F99F6780E870E060E035
:1054A00008959FEF80EC089500240A9416161706BD
:1054B00018060906089500240A9412161306140605
:1054C00005060895092E0394000C11F4882352F068
:1054D000BB0F40F4BF2B11F460FF04C06F5F7F4F20
:1054E0008F4F9F4F089557FD9058440F551F59F007
:1054F0005F3F71F04795880F97FB991F61F09F3FC1
:1055000079F087950895121613061406551FF2CFE9
:105510004695F1DF08C0161617061806991FF1CF39
:1055200086957105610508940895E894BB27662760
:105530007727CB0197F90895F999FECF92BD81BDE8
:10554000F89A992780B50895262FF999FECF1FBAAA
:1055500092BD81BD20BD0FB6F894FA9AF99A0FBE9C
:1055600001960895052E97FB1EF400940E94C92A07
:1055700057FD07D00E941B2B07FC03D04EF40C9460
:10558000C92A50954095309521953F4F4F4F5F4F19
:10559000089590958095709561957F4F8F4F9F4F9F
:1055A00008950E943D2BA59F900DB49F900DA49F40
:1055B000800D911D11240895B7FF0C94D12A0E94EB
:1055C000D12A821B930B08952F923F924F925F92A4
:1055D0006F927F928F929F92AF92BF92CF92DF9203
:1055E000EF92FF920F931F93CF93DF93CDB7DEB768
:1055F000CA1BDB0B0FB6F894DEBF0FBECDBF0994FC
:105600002A88398848885F846E847D848C849B8452
:10561000AA84B984C884DF80EE80FD800C811B8160
:10562000AA81B981CE0FD11D0FB6F894DEBF0FBE8F
:10563000CDBFED010895A1E21A2EAA1BBB1BFD01EF
:105640000DC0AA1FBB1FEE1FFF1FA217B307E40761
:10565000F50720F0A21BB30BE40BF50B661F771FB9
:10566000881F991F1A9469F7609570958095909599
:105670009B01AC01BD01CF010895A29FB001B39F72
:10568000C001A39F700D811D1124911DB29F700D4B
:10569000811D1124911D08955058BB27AA270E94EF
:1056A000642B0C94622A0E94542A38F00E945B2AD0
:1056B00020F039F49F3F19F426F40C94512A0EF48B
:1056C000E095E7FB0C944B2AE92F0E94732A58F3CC
:1056D000BA17620773078407950720F079F4A6F5D7
:1056E0000C94952A0EF4E0950B2EBA2FA02D0B01E9
:1056F000B90190010C01CA01A0011124FF27591B17
:1057000099F0593F50F4503E68F11A16F040A22F1C
:10571000232F342F4427585FF3CF4695379527958D
:10572000A795F0405395C9F77EF41F16BA0B620B8C
:10573000730B840BBAF09150A1F0FF0FBB1F661FD3
:10574000771F881FC2F70EC0BA0F621F731F841F16
:1057500048F4879577956795B795F7959E3F08F03C
:10576000B0CF9395880F08F09927EE0F97958795FE
:1057700008950E94682CE3950C94912C0E94D22BE2
:105780000C94622A0E945B2A58F00E94542A40F02E
:1057900029F45F3F29F00C944B2A51110C94962A5E
:1057A0000C94512A0E94732A68F39923B1F355236C
:1057B00091F3951B550BBB27AA2762177307840724
:1057C00038F09F5F5F4F220F331F441FAA1FA9F3BA
:1057D00035D00E2E3AF0E0E832D091505040E695A8
:1057E000001CCAF72BD0FE2F29D0660F771F881F09
:1057F000BB1F261737074807AB07B0E809F0BB0BFC
:10580000802DBF01FF2793585F4F3AF09E3F51050F
:1058100078F00C944B2A0C94962A5F3FE4F3983E60
:10582000D4F3869577956795B795F7959F5FC9F7F8
:10583000880F911D9695879597F90895E1E0660F79
:10584000771F881FBB1F621773078407BA0720F0F2
:10585000621B730B840BBA0BEE1F88F7E09508955B
:105860000E94372C6894B1110C94962A08950E94D6
:105870007B2A88F09F5798F0B92F9927B751B0F03D
:10588000E1F0660F771F881F991F1AF0BA95C9F7C4
:1058900014C0B13091F00E94952AB1E008950C94A3
:1058A000952A672F782F8827B85F39F0B93FCCF356
:1058B000869577956795B395D9F73EF49095809541
:1058C000709561957F4F8F4F9F4F08950C94512A8B
:1058D0000E947B2AD8F3E894E0E0BB279F57F0F0C2
:1058E0002AED3FE049EC06C0EE0FBB0F661F771FA5
:1058F000881F28F0B23A62077307840728F0B25A6B
:10590000620B730B840BE3959A9572F7803830F431
:105910009A95BB0F661F771F881FD2F790480C948B
:10592000F52CEF93E0FF07C0A2EA2AED3FE049EC37
:105930005FEB0E94642B0E94622A0F90039401FC8B
:105940009058ECEAF0E00C94082D9F930E94682C8C
:105950000F9007FCEE5F0C94912C19F416F40C9444
:10596000512A0C94F32C0E947B2AB8F39923C9F393
:10597000B6F39F57550B87FF0E94012D0024A0E628
:1059800040EA900180585695979528F4805C660F00
:10599000771F881F20F026173707480730F4621B4F
:1059A000730B840B202931294A2BA6951794079451
:1059B000202531254A2758F7660F771F881F20F0CA
:1059C00026173707480730F4620B730B840B200D42
:1059D000311D411DA09581F7B901842F9158880F81
:1059E0009695879508959F3F31F0915020F48795C3
:1059F00077956795B795880F911D9695879597F937
:105A0000089591505040660F771F881FD2F7089570
:105A10009F938F937F936F93FF93EF939B01AC01C1
:105A20000E94DE29EF91FF910E941C2D2F913F9142
:105A30004F915F910C94DE29DF93CF931F930F93C7
:105A4000FF92EF92DF927B018C01689406C0DA2E00
:105A5000EF010E94F129FE01E894A591259135916D
:105A600045915591A6F3EF010E94642BFE01970129
:105A7000A801DA9469F7DF90EF90FF900F911F91E2
:105A8000CF91DF910895991B79E004C0991F961773
:105A900008F0961B881F7A95C9F780950895AA1B70
:105AA000BB1B51E107C0AA1FBB1FA617B70710F009
:105AB000A61BB70B881F991F5A95A9F7809590953B
:105AC000BC01CD01089597FB072E16F4009407D072
:105AD00077FD09D00E944F2D07FC05D03EF490952C
