:100000000C942C040C9454040C9454040C94540438
:100010000C9454040C9454040C9454040C94540400
:100020000C9454040C9454040C94FD1F0C946C20F8
:100030000C9454040C9454040C9454040C945404E0
:100040000C9454040C9454040C9454040C945404D0
:100050000C9454040C9454040C9454040C949E2258
:100060000C9454040C9454040C9454040C945404B0
:100070000C9454040C9454040C9454040C945404A0
:100080000C94E8220C9454040C9454040C945404DE
:100090000C9454040C9454040C9454040C94540480
:1000A0000C9454040C9454040C94540405A84CCDA2
:1000B000B2D44EB93836A9020C50B9918688083CA2
:1000C000A6AAAA2ABE000000803F00407A10F35A78
:1000D00000A0724E18090010A5D4E80000E8764888
:1000E000170000E40B54020000CA9A3B000000E134
:1000F000F505000080969800000040420F000000C7
:10010000A08601000000102700000000E8030000A6
:1001100000006400000000000A0000000000010070
:10012000000000002C76D888DC674F0823DFC1DF91
:10013000AE59E1B1B796E5E3E453C63AE651997694
:1001400096E8E6C28426EB898C9B62ED407C6FFCCE
:10015000EFBC9C9F40F2BAA56FA5F490055A2AF710
:100160005C936B6CF9676DC11BFCE0E40D47FEF519
:1001700020E6B500D0ED902E030094357705008081
:10018000841E080000204E0A000000C80C333333E0
:10019000330F986E12831141EF8D2114893BE65580
:1001A00016CFFEE6DB18D1844B381BF77C1D901D63
:1001B000A4BBE424203284725E228100C9F124ECC5
:1001C000A1E53D27C4002200060144004A01440085
:1001D0000B0288000080C4001100A5001100F70088
:1001E000110083001100C4001100A5001100F700E8
:1001F0001100830011000080A5002200AF00220042
:10020000C4002200AF002200008000000000003E79
:100210005B4F5B3E3E6B4F6B3E1C3E7C3E1C183C76
:100220007E3C181C577D571C1C5E7F5E1C00183CD2
:100230001800FFE7C3E7FF0018241800FFE7DBE71B
:10024000FF30483A060E2629792926407F05050702
:10025000407F05253F5A3CE73C5A7F3E1C1C08085E
:100260001C1C3E7F14227F22145F5F005F5F060923
:100270007F017F006689956A606060606094A2FF7C
:10028000A29408047E040810207E201008082A1C6E
:1002900008081C2A08081E101010100C1E0C1E0C3A
:1002A00030383E3830060E3E0E06000000000000DA
:1002B000005F00000007000700147F147F14242A49
:1002C0007F2A12231308646236495620500008071B
:1002D0000300001C2241000041221C002A1C7F1C3C
:1002E0002A08083E0808008070300008080808083E
:1002F000000060600020100804023E5149453E00A5
:10030000427F400072494949462141494D33181402
:10031000127F1027454545393C4A49493141211151
:1003200009073649494936464949291E0000140043
:100330000000403400000008142241141414141466
:10034000004122140802015909063E415D594E7CC4
:100350001211127C7F494949363E414141227F4179
:1003600041413E7F494949417F090909013E4141D7
:1003700051737F0808087F00417F41002040413FC2
:10038000017F081422417F404040407F021C027FD1
:100390007F0408107F3E4141413E7F090909063E26
:1003A0004151215E7F0919294626494949320301F5
:1003B0007F01033F4040403F1F2040201F3F403807
:1003C000403F631408146303047804036159494DE2
:1003D00043007F4141410204081020004141417F18
:1003E000040201020440404040400003070800208E
:1003F000545478407F28444438384444442838448E
:1004000044287F385454541800087E090218A4A4C4
:100410009C787F0804047800447D40002040403DE3
:10042000007F1028440000417F40007C047804785D
:100430007C080404783844444438FC1824241818F0
:10044000242418FC7C08040408485454542404044C
:100450003F44243C4040207C1C2040201C3C403039
:10046000403C44281028444C9090907C4464544C68
:1004700044000836410000007700000041360800C3
:1004800002010204023C2623263C1EA1A161123A6D
:100490004040207A385454555921555579412154BA
:1004A000547841215554784020545579400C1E52BF
:1004B0007212395555555939545454593955545463
:1004C000580000457C410002457D420001457C40CA
:1004D000F0292429F0F0282528F07C5455450020E7
:1004E00054547C547C0A097F493249494932324884
:1004F000484832324A4848303A4141217A3A4240EB
:100500002078009DA0A07D39444444393D404040BE
:100510003D3C24FF2424487E4943662B2FFC2F2B8F
:10052000FF0929F620C0887E090320545479410030
:1005300000447D413048484A32384040227A007AAF
:100540000A0A727D0D19317D2629292F282629298D
:10055000292630484D4020380808080808080808AF
:10056000382F10C8ACBA2F102834FA00007B0000D6
:1005700008142A142222142A14089500220095AA8D
:10058000005500AAAA55AA55AA000000FF001010A5
:1005900010FF00141414FF001010FF00FF1010F0E3
:1005A00010F0141414FC001414F700FF0000FF00F6
:1005B000FF1414F404FC141417101F10101F101F44
:1005C0001414141F00101010F0000000001F101071
:1005D00010101F10101010F010000000FF1010106D
:1005E000101010101010FF10000000FF140000FF8A
:1005F00000FF00001F10170000FC04F41414171073
:10060000171414F404F40000FF00F7141414141465
:100610001414F700F7141414171410101F101F14DB
:100620001414F4141010F010F000001F101F00003C
:10063000001F14000000FC140000F010F01010FF68
:1006400010FF141414FF141010101F00000000F00D
:1006500010FFFFFFFFFFF0F0F0F0F0FFFFFF0000E2
:10066000000000FFFF0F0F0F0F0F38444438447C89
:100670002A2A3E147E02020606027E027E0263558C
:100680004941633844443C04407E201E2006027EDB
:10069000020299A5E7A5991C2A492A1C4C720172ED
:1006A0004C304A4D4D303048784830BC625A463D57
:1006B0003E494949007E0101017E2A2A2A2A2A440C
:1006C000445F444440514A444040444A5140000041
:1006D000FF0103E080FF000008086B6B083612364C
:1006E0002436060F090F060000181800000010102D
:1006F000003040FF0101001F01011E00191D1712EB
:10070000003C3C3C3C000000000000B00000A17038
:10071000E150964F26900F1D070C009669004AE4A1
:100720004A0048444000806810000F99FB8F9DBD2F
:10073000BBFB77D4D4DF1F1A1AFE7F5D5DFF805AA2
:100740000000A0A4AA0010BA3400FF5953F3FF9B85
:100750009B9EFFB9B996FF9595D19FF4940FFC2904
:100760005F91FF1838F8FF9294FFFF95D5F7BFB55A
:10077000DDD7F18F81F1F788C8F779C6467909FD91
:100780009B090196F8008281828050716200775641
:10079000560076763700A2B77301077206007827F5
:1007A000500073347400775176007F55F70047711D
:1007B0001000324772007364730015A27500616700
:1007C0009400009F6060F4F2F6F2D5F08D14A1C899
:1007D00081CFD9F1AF2000080B000202020000090E
:1007E000040000010202000005240010010524019C
:1007F00001010424020605240600010705810310F7
:10080000004009040100020A00000007050202403E
:1008100000000705830240000004030904120100E0
:1008200002EF020140412336800001010203014131
:10083000726475696E6F204C4C430041726475623E
:100840006F79004A0111002601110006011100A56F
:10085000001100008000492311241FBECFEFDAE011
:10086000DEBFCDBF12E0A0E0B1E0E4E7FCE502C0EE
:1008700005900D92AE30B107D9F728E0AEE0B2E0B6
:1008800001C01D92A73DB207E1F714E0CCE2D4E02D
:1008900004C02197FE010E94402CCB32D107C9F73A
:1008A0000E94A7230C94382E0C9400008091190408
:1008B00008956034710590F5480F592F511D141695
:1008C000150664F5803891054CF597FF02C090E05D
:1008D00080E04138510514F040E850E0481BFB012E
:1008E000E770FF2721E001C0220FEA95EAF7FB013C
:1008F00033E0F595E7953A95E1F7F695FE2FEE276B
:10090000F795E795E80FF91FE654FB4F415030F09B
:100910008191DF011197822B8C93F8CF08952F924C
:100920003F924F925F926F927F928F929F92AF927F
:10093000BF92CF92DF92EF92FF920F931F93CF93CC
:10094000DF93CDB7DEB72E970FB6F894DEBF0FBE9C
:10095000CDBF5B016A013E872D87261737070CF054
:1009600001C1E616F7060CF415C1621773075CF0B7
:100970003A2D2B2DAD84BE843D872E87382F292F0D
:10098000C601C32ED22EAE14BF04A1F5C816D906D7
:1009900054F0382F292F8C159D0514F43C2D2D2D46
:1009A0006C01832F922F0C151D052CF080179107D9
:1009B0000CF4C80186018F5F482F401BB501C801A8
:1009C0002E960FB6F894DEBF0FBECDBFDF91CF914C
:1009D0001F910F91FF90EF90DF90CF90BF90AF905D
:1009E0009F908F907F906F905F904F903F902F904F
:1009F0000C945904302F212F8C01832F922F3E2DE0
:100A00002F2D7501A32EB22E9601201B310B388796
:100A10002F834D855E854E195F095A8749873C01B2
:100A2000601A710A95012E193F093A832983AC0196
:100A30004C195D095C834B83C5012D853E85821B66
:100A4000930B9C878B872A153B05F1F121503109C7
:100A50003E832D834701512C412C312C212C8D813B
:100A60009E8188159905ACF1C10169857A850E943E
:100A70002C2C9B01200F311FC20169817A810E94B9
:100A80002C2C600F711F4F815885240E351E460C8B
:100A9000571C621773071CF4922F9B01692F6F5F1D
:100AA000462F421BB401C9010E9459045FEF851A09
:100AB000950AD5CF3C2D2D2D6C01832F922F3A2DE9
:100AC0002B2DAD84BE8475C04D855E855E834D83C0
:100AD000C1CFC4012D853E85821B930B2B813C81A8
:100AE000829FA001839F500D929F500D11245E8321
:100AF0004D83C4018E199F09869D7001879DF00C5E
:100B0000969DF00C1124A814B9040CF455C08D81E5
:100B10009E816B857C850E942C2C9B012C0D3D1D9C
:100B2000C70169817A810E942C2C600F711F4D8151
:100B30005E818B819C81480F591F5E834D83E60C3B
:100B4000F71C621773071CF4922F9B01692F6F5FCC
:100B5000462F421BB401C9010E9459049FEF891A14
:100B6000990AD1CF2D853E85E216F3060CF00BCF06
:100B7000E616F7060CF49ECF302F212F8A016C0168
:100B8000832F922F3D852E857E876D875701E32E1B
:100B9000F22EEECE4D855E85E416F5060CF434CFCC
:100BA000302F212F8601C32ED22E3E2D2F2DED84E6
:100BB000FE843D872E8728CF2E960FB6F894DEBF91
:100BC0000FBECDBFDF91CF911F910F91FF90EF909E
:100BD000DF90CF90BF90AF909F908F907F906F905D
:100BE0005F904F903F902F900895EAEBF4E080E003
:100BF000A0E0B8E000800EBC8111012C1197A0FD8F
:100C0000FDCF0192B9F70DB40895FC01809137042E
:100C1000882311F13FB7F89482E08093E900209196
:100C2000F200822F90E01816190614F481E090E08B
:100C3000882339F0289844E6409336044091F10027
:100C40004083222339F02091F200211103C02BE6CA
:100C50002093E8003FBF08958FEF9FEF08952FB7CF
:100C6000F89483E08093E9009091E800892F8072E6
:100C700095FF04C09091F20080E4891B2FBF089576
:100C800080912E0481110DC082E080932A0484E0BB
:100C900080932B0410922D0410922C0481E08093F9
:100CA0002E048AE294E00895CF93DF931F92CDB78C
:100CB000DEB76983DC01ED91FC910280F381E02DC8
:100CC00041E050E0BE016F5F7F4F09950F90DF91CB
:100CD000CF91089583E08093E9008091F20088230A
:100CE00019F08AE38093E80008950E942F0690E0AF
:100CF0000895CF93DF931F92CDB7DEB7FC018485B3
:100D0000958597FD08C02FEF3FEF358724870F901B
:100D1000DF91CF910895CE0101960E9405060197BB
:100D200019F4898190E0F3CF8FEF9FEFF0CF0F930D
:100D30001F93CF93DF931F92CDB7DEB78C01FC01D9
:100D40008485958597FF0BC0CE0101960E9405060C
:100D5000019771F4898190E0F80195878487F80103
:100D6000848595850F90DF91CF911F910F91089504
:100D70008FEF9FEFF1CFFC018485958597FD0BC028
:100D80009FB7F89482E08093E9008091F2009FBFC2
:100D900090E0019608959FB7F89482E08093E9006F
:100DA0008091F2009FBF90E00895409124045091FB
:100DB0002504209122043091230442175307B4F4F0
:100DC0009091E8009570E1F39091E80092FD19C0D0
:100DD0008093F100809124049091250401968F73F3
:100DE0009927892B19F48EEF8093E80080912404D1
:100DF000909125040196909325048093240481E02A
:100E0000089580E00895EF92FF920F931F93CF9380
:100E1000DF93F82E192FE62E042F81E0860F880F1E
:100E20000E94D50683E00E94D506CF2DD12FEC0E6F
:100E3000FD2EF11CCE15DF05B9F007FF13C0FE0132
:100E400084910E94D506182F80E00E94D506812348
:100E500021968111EFCFDF91CF911F910F91FF90DC
:100E6000EF9008958881EDCF81E0F5CFDF92EF928A
:100E7000FF920F931F93CF93DF93D82E8A01EB013C
:100E80007B01E40EF51ECE15DF0559F0D7FE12C02A
:100E9000FE0184910E94D50621968111F4CF0FEFB7
:100EA0001FEFC801DF91CF911F910F91FF90EF903D
:100EB000DF9008958881EECF0F931F93CF93DF9338
:100EC0001F92CDB7DEB782E0898342E450E067ED40
:100ED00077E080E80E9436070E944006DC01129607
:100EE0000D911C910115110589F0D801ED91FC912E
:100EF0000280F381E02DBE016F5F7F4FC80109952D
:100F000097FD04C0F80100851185ECCF89810F9011
:100F1000DF91CF911F910F910895615030F0209192
:100F2000F100FC0120830196F8CF289884E6809395
:100F3000360408950895DB0114964D915C91159740
:100F40006D917C91DC01ED91FC910280F381E02DAB
:100F50000994AF92BF92CF92DF92EF92FF920F93DC
:100F60001F93CF93DF936C017B018B01040F151F3F
:100F7000EB015E01AE18BF08C017D10759F06991A7
:100F8000D601ED91FC910190F081E02DC60109950B
:100F9000892B79F7C501DF91CF911F910F91FF90B8
:100FA000EF90DF90CF90BF90AF9008953FB7F89447
:100FB0008091150490911604A0911704B091180423
:100FC00026B5A89B05C02F3F19F00196A11DB11DA4
:100FD0003FBFBA2FA92F982F8827BC01CD01620FE0
:100FE000711D811D911D42E0660F771F881F991F9B
:100FF0004A95D1F708958F929F92AF92BF92CF9268
:10100000DF92EF92FF926B017C010E94D6074B01A9
:101010005C01C114D104E104F104B9F00E94D607C7
:10102000681979098A099B09683E73408105910511
:1010300080F321E0C21AD108E108F10888EE880E99
:1010400083E0981EA11CB11CE4CFFF90EF90DF90CD
:10105000CF90BF90AF909F908F9008958F929F9266
:10106000AF92BF92CF92DF92EF92FF920F931F93B6
:10107000CF93DF936C017B018A0180910C0188235F
:1010800009F45CC080913704882309F457C080912B
:10109000290480FF05C08091E00082608093E00019
:1010A000E801B12C8AEFA82E93E0892E2AE3922E34
:1010B000209711F4BB20D9F10E942F0681110AC09C
:1010C000AA94AA20D9F161E070E080E090E00E944B
:1010D000FB07EECF8C171D0611F00CF08C2F9FB77D
:1010E000F8948092E9002091E80025FD02C09FBF9E
:1010F000DFCF282F30E0C21BD30BF701815020F047
:1011000041914093F100FACFE20EF31EBB2021F093
:101110009092E800B12CEBCF8091E80085FDE7CFFD
:101120009092E800BB24B394209709F3F3CF5D9825
:1011300084E680932804101611063CF081E090E0CC
:10114000F6019383828310E000E0C801DF91CF9124
:101150001F910F91FF90EF90DF90CF90BF90AF90D5
:101160009F908F9008956F927F928F929F92AF92EF
:10117000BF92CF92DF92EF92FF920F931F93CF9384
:10118000DF934C017B01C22F102F98E0A92EB12CC8
:10119000642E669466946694712CCA0187709927B0
:1011A000892B79F5D40117962D913C91C701992788
:1011B000B9010E942C2C269DF001279DF00D369D33
:1011C000F00D11248E0F9F1FD4011596ED91FC9107
:1011D000E80FF91F2081111112C0C095C223C083EE
:1011E000DF91CF911F910F91FF90EF90DF90CF9003
:1011F000BF90AF909F908F907F906F900895C22B7B
:10120000EECFD0E04770C42ED12C83E0660C771C63
:101210008A95E1F79E0101C0220F4A95EAF7012F56
:10122000A301B701C4010E94B308A301485F5F4F47
:10123000C5018C199D0902C0D595C7958A95E2F71D
:10124000A7CF5F926F927F928F929F92AF92BF9241
:10125000CF92DF92EF92FF920F931F93CF93DF9382
:10126000EC016A30F1F48D859E859C878B878C8993
:101270002F853889820F932F911D988B8F8781E05E
:1012800090E0DF91CF911F910F91FF90EF90DF9051
:10129000CF90BF90AF909F908F907F906F905F9016
:1012A0000895AB84BC84693031F429E0A20EB11CEE
:1012B000BC86AB86E4CF3DEFA3163FEFB3060CF43C
:1012C0005DC08F819885A816B9060CF057C0CF84F1
:1012D000D8888DEFC8168FEFD8060CF44FC08985DB
:1012E0009A85C816D9060CF049C0603208F46FE739
:1012F00080EE860F9FE9960F9A3118F49FEFC91A76
:10130000D90A8C3011F08B3119F42FEFC21AD20A9E
:10131000869534E0839FC00111249C01265F384FDD
:101320007901912C812C162F1170F701E80DF91D10
:10133000549011112DC0352D3F70532E3501680C7E
:10134000791C8C81882361F001E089899A89892B35
:1013500009F000E02FE0A601B301CE010E94B3081E
:101360000989252DA601B301CE010E94B3088FEF94
:10137000881A980A94E089169104B9F68B8990E04E
:1013800004962B853C85820F931F9C878B8777CF94
:1013900052948FE05822D2CF20910D04E0910B049B
:1013A000F0910C04CF01029690930C0480930B04EF
:1013B000222319F085919491089580819181089557
:1013C000CF92DF92EF92FF92CF93DF930E94CC09EE
:1013D000811520E8920791F4809171008D7F8093B0
:1013E0007100109291004698479810920A04DF917C
:1013F000CF91FF90EF90DF90CF90089521E0209360
:101400000A04813020E8920751F4809108049091F9
:10141000090490930C0480930B040E94CC0997FD5F
:1014200005C020910704222309F454C0209106042A
:10143000211150C021E020930E04EC01DF772097AA
:1014400009F04BC081E080930F0446983FE9C32E1A
:101450003FE0D32EE12CF12CCAEFD0E0E0919604CE
:10146000F09197040995811103C081E080930F04E6
:1014700080910E04882329F080910F04882309F4B9
:101480003FC047980E94CC090097F1F19C01DE0112
:101490000E94062ADC01CB0129E0B595A795979516
:1014A00087952A95D1F7109290002AE02093910019
:1014B000D0929900C09298008093100490931104E8
:1014C000A0931204B0931304809171008260809302
:1014D00071008DCF10920E04B0CF9E0150E040E01D
:1014E00060E472E48FE090E00E947B2969017A0158
:1014F00081E0C81AD108E108F10810920F04AECFBC
:101500004699BFCF479ABECF8FEF9FEFDC01CBCF7D
:101510009C01E1E7F0E090819D7F908381E08093E2
:101520000D0430930C0420930B0430930904209392
:1015300008040C94E009BC0190E080E00C94FB07E7
:101540008FB18095807F669B88601C9B8460089526
:1015500090910104982329F490910004982381E04C
:1015600009F480E008951F93CF93DF93C82FD62FFF
:1015700080E80E94A80A182F811105C080E10E940E
:10158000A80A882371F080910F01909110010297B1
:1015900021F083E498E00E94880A112339F0C111F8
:1015A000C1508C2FDF91CF911F9108958C2F90E027
:1015B0006D2F70E00196681779070CF4CB01C82FE6
:1015C000F0CFCF93C82F0E94A00A982F9C2381E0D0
:1015D0009C1380E0CF91089580389105B8F4603471
:1015E0007105A0F420E191E061FD94E060FD990FA8
:1015F00062FD9295687F269FD0011124A80FA65402
:10160000BB4F8C9140FF03C0892B8C93089590951C
:101610008923FBCF2F923F924F925F926F927F92DE
:101620008F929F92AF92BF92CF92DF92EF92FF92F2
:101630000F931F93CF93DF937C014B01C42FD0E016
:1016400081E090E06C01CC1ADD0AAA24BB24AC1A1C
:10165000BD0AAA0CBB1C66246394712C10E000E048
:10166000822F8470582E822F8270482E822F88708D
:10167000382E2170222ED7FC06C0219782E0A80EBA
:10168000B11CCA0CDB1C0F5F1F4F82E0680E711C7F
:10169000C60CD71C552091F041E0BE01680D791DA4
:1016A000C701800F911F0E94EC0A41E0B401600F56
:1016B000711FCE018E0D9F1D0E94EC0A442091F0F7
:1016C00041E0B4016C1B7D0BC701800F911F0E948C
:1016D000EC0A41E0B401601B710BCE018E0D9F1D21
:1016E0000E94EC0A332091F041E0B401600F711FB9
:1016F000C7018C1B9D0B0E94EC0A41E0BE01680DE6
:10170000791DC701801B910B0E94EC0A222091F0E9
:1017100041E0B401601B710BC7018C1B9D0B0E9443
:10172000EC0A41E0B4016C1B7D0BC701801B910BDF
:101730000E94EC0A0C171D070CF49DCFDF91CF918E
:101740001F910F91FF90EF90DF90CF90BF90AF90DF
:101750009F908F907F906F905F904F903F902F90D1
:1017600008958F929F92AF92BF92CF92DF92EF92A5
:10177000FF920F931F93CF93DF936D3089F0C0904A
:101780000204D09003046A30D1F410920504109240
:10179000040488E0C80ED11CD0920304C092020455
:1017A00081E090E0DF91CF911F910F91FF90EF903A
:1017B000DF90CF90BF90AF909F908F900895009151
:1017C000040410910504E5E06E9FE0011124C65F5A
:1017D000DD4F4801F12CF5E0E12CFF1629F0CE0198
:1017E0000196FE01E490EC01B12CA12C4E2D41702C
:1017F000B6016A0D7B1DC4010E94EC0AE694FFEF5E
:10180000AF1ABF0A88E0A816B10481F7F394EFEF8E
:101810008E1A9E0AF6E0FF12DECF0A5F1F4F10936A
:10182000050400930404BCCFDF92EF92FF920F9364
:101830001F93CF93DF937C01D22E8B01040F111DD8
:10184000EB0177FF02C0D0E0C0E0C8010134110510
:1018500014F080E490E0C817D9073CF44D2DBE0188
:10186000C7010E94EC0A2196F0CFDF91CF911F9122
:101870000F91FF90EF90DF9008952F923F924F923B
:101880005F926F927F928F929F92AF92BF92CF9210
:10189000DF92EF92FF920F931F93CF93DF938C0110
:1018A000EB017A018417950741F56217730709F474
:1018B000A7C0AB01421B530B57FF03C05195419585
:1018C00051094F5FBE012C173D070CF4B90121E00F
:1018D000C801DF91CF911F910F91FF90EF90DF90A2
:1018E000CF90BF90AF909F908F907F906F905F90C0
:1018F0004F903F902F900C94140C6217730719F5BA
:10190000AC014E195F0957FF03C05195419551092C
:101910004F5FC801E016F1060CF4C701BE01DF916C
:10192000CF911F910F91FF90EF90DF90CF90BF90DC
:10193000AF909F908F907F906F905F904F903F906F
:101940002F900C9459046901C61AD70AD7FE03C018
:10195000D194C194D1084701801A910A97FE03C01F
:101960009194819491088C149D0454F49E2D8F2D94
:101970007901292F382F902F812F8E01C92FD82F31
:10198000E016F10654F49C2F8D2FE901292F382FF2
:10199000902F812F8701E92EF82E1701201A310A86
:1019A00029014C1A5D0A57FE03C051944194510815
:1019B000310137FE03C08FEF681A780A7594679477
:1019C0008FEFC217D3070CF481E0A82E880FBB0855
:1019D000E016F106ACF041E0B801CE018C149D0494
:1019E00014F0BE01C8010E94EC0A6418750877FE65
:1019F00004C0CA0DDB1D620C731C0F5F1F4FE8CFC4
:101A0000DF91CF911F910F91FF90EF90DF90CF90DA
:101A1000BF90AF909F908F907F906F905F904F900E
:101A20003F902F9008955F926F927F928F929F9236
:101A3000AF92BF92CF92DF92EF92FF920F931F93DC
:101A4000CF93DF93EC017B01142F722E602E660C76
:101A5000542E5618802E912C5401A80EB91E452DD7
:101A6000C5010E9459046701C70CD11CB601615021
:101A70007109452DC5010E9459047618E80CF91C1E
:101A800021E0472DB701CE010E94140CC10FD11DDA
:101A900021E0472DB701CE0101970E94140C21E0EF
:101AA000402FB701C5010E940A0BC819D909219717
:101AB00022E0402FB701CE010E940A0B7601E81800
:101AC000F90881E0E81AF10824E0402FB701CE01BF
:101AD0000E940A0B28E0402FB701C501DF91CF918A
:101AE0001F910F91FF90EF90DF90CF90BF90AF903C
:101AF0009F908F907F906F905F900C940A0B2F9225
:101B00003F924F925F926F927F928F929F92AF928D
:101B1000BF92CF92DF92EF92FF920F931F93CF93DA
:101B2000DF9300D000D0CDB7DEB76C013B014A8314
:101B3000222EAA24A394B12C10E000E083E090E0D0
:101B40009C838B839AEF492E55245A942EEFE22ED4
:101B5000FF24FA9491E0920D99830F5F1F4FE2E00A
:101B6000AE0EB11CEA0CFB1C4B81440FB3018B8100
:101B70009C81681B790B322C3A0C4301801A910A24
:101B80009A81913029F5E9814E0F20E0C601800F3E
:101B9000911F0E94140C20E0432DB4018B819C8185
:101BA0008C0D9D1D0E94140CEB81FC810E171F07EC
:101BB00004F5FFEFEF16FF0681F28B819C81019700
:101BC0009C838B8392E0490E511CE40CF51CC5CF1D
:101BD000F9814F0F20E0C601801B910B0E94140C6D
:101BE00020E0432DB401C601EB81FC818E1B9F0BCD
:101BF000D9CF0F900F900F900F90DF91CF911F9141
:101C00000F91FF90EF90DF90CF90BF90AF909F909B
:101C10008F907F906F905F904F903F902F9008959E
:101C20002F923F924F925F926F927F928F929F92EC
:101C3000AF92BF92CF92DF92EF92FF920F931F93DA
:101C4000CF93DF9300D000D000D0CDB7DEB7742E95
:101C5000622E2801262F660F330B3E832D83A82E7C
:101C6000880FBB08CC2009F440C032E0360D398320
:101C700052E0540F5A832D803E8081E0281A3108AB
:101C8000F5013197FC83EB834501F2E08F0E911C47
:101C900064010CEF040F080D192D111DC016D1069B
:101CA00054F420E04981B101C6010E94140C2FEFC9
:101CB000C21AD20AF3CF89818750990B8C018B818C
:101CC0009C81EA818E0F911D980141E0CD80DE80DC
:101CD000F2E0CF0ED11CB60104970E947F0D98014F
:101CE00042E0B601C4010E947F0D03E0262D472D7E
:101CF0006D817E81C5010E94130D6D817E81695FBA
:101D00007F4F472DC5010E945904F201248135817E
:101D100081E090E0821B930B220F331F220F331FB1
:101D2000821B930B870D911D96958795A80EB91E62
:101D3000F701B686A586B486A3862D813E812E5FE7
:101D40003F4F308B2787B201C70126960FB6F89414
:101D5000DEBF0FBECDBFDF91CF911F910F91FF90DE
:101D6000EF90DF90CF90BF90AF909F908F907F903B
:101D70006F905F904F903F902F900C949B07EDE0F9
:101D8000F1E090818181989F802D1124891B8F5FC4
:101D90000895CF9390910D01EEE0F2E080E0981766
:101DA00019F011928F5FFBCFC0E00E94BF0EC817E1
:101DB00050F4EC2FF0E0EE0FFF1FE65EFD4F1182B6
:101DC0001082CF5FF2CF1092FB031092FA031092B1
:101DD000FC031092FD031092FE031092FF03109279
:101DE000B404CF910895EDE0F1E082E0808386E0D5
:101DF000818381E090E093838283E8E9F4E091833A
:101E000080838FEF82838CE38383158E168E0C94F0
:101E1000C90EFC01DB0112968D919C91139793835F
:101E200082838FE491E09183808314968C91149740
:101E3000848315968D919C9116979683858317962A
:101E40008D919C9118979087878319968D919C917D
:101E50001A97928781871B968D919C911C979487E6
:101E600083871D968D919C911E97968785871F96D7
:101E70008D919C915097908B878751968D919C91D5
:101E80005297928B818B53968C915397838B549658
:101E90008C91848B089590E080E00895FB0101907F
:101EA0000020E9F73197AF01461B570B0C94A907A7
:101EB0000F931F93CF93DF93EC0188819981009753
:101EC00059F02A813B812617370730F081E0DF91F6
:101ED000CF911F910F9108958B016F5F7F4F0E94EB
:101EE0006B2D009759F0998388831B830A832C817B
:101EF0003D81232B59F7FC011082E8CF80E0E7CF2A
:101F0000EF92FF920F931F93CF93DF9361157105AB
:101F100041F480E0DF91CF911F910F91FF90EF90FE
:101F2000089541155105B1F07B01EC010C811D8133
:101F3000040F151FB8010E94580F882351F3288100
:101F400039818C819D81B701820F931F0E94312EB0
:101F50001D830C8381E0DECFCF93DF93EC0188817A
:101F60009981009711F00E94E22C198218821D823B
:101F70001C821B821A82DF91CF910895CF93DF9349
:101F8000EC01FB0101900020E9F73197AF01461BFE
:101F9000570B0E94800F811103C0CE010E94AC0F2D
:101FA000CE01DF91CF910895CF93DF93EC01FB0138
:101FB00044815581608171810E94800F811103C02D
:101FC000CE010E94AC0FCE01DF91CF910895EF9228
:101FD000FF920F931F93CF93DF93EC017B018A0154
:101FE000BA010E94580F81110BC0CE010E94AC0FA4
:101FF000CE01DF91CF911F910F91FF90EF90089547
:102000001D830C83B701888199810E94312EF0CF06
:10201000FB0101900020E9F73197AF01461B570BF8
:102020000C94E70F0F931F93CF93DF93CDB7DEB7D9
:1020300029970FB6F894DEBF0FBECDBF8C01862F57
:10204000F8011182108213821282158214824AE0F2
:10205000BE016F5F7F4F90E00E940926BE016F5F57
:102060007F4FC8010E94081029960FB6F894DEBF72
:102070000FBECDBFDF91CF911F910F910895FB014E
:10208000DC0111961C921E9213961C921E921297BE
:1020900015961C921E9214978617970749F0608137
:1020A00071816115710521F0448155810C94E70F10
:1020B0000895FC011182108213821282158214820B
:1020C000FB0101900020E9F73197AF01461B570B48
:1020D0000C94E70FFC0180819181009711F00C9422
:1020E000E22C08953F924F925F926F927F928F926F
:1020F0009F92AF92BF92CF92DF92EF92FF920F9397
:102100001F93CF93DF93CDB7DEB7EC970FB6F8945C
:10211000DEBF0FBECDBF4C01462EA72EB42E522ED1
:10212000B701CE0146960E94090FB401CE01C796B1
:102130000E943F10DB2CDD0CDD0CDB0C8EE0D80E9A
:10214000B401CE01C1960E943F108DA98E5F642C10
:102150007A2CF301412C24813581A9014E5F5F4F18
:102160008417150609F010F482E0820F4394369626
:10217000B410F1CF92E0392E380E330C330C81506D
:10218000380EBE016A5E7F4FCE0101960E94090F94
:10219000BE01695C7F4FCE018B960E943F1020E408
:1021A000822E912C8D1891089594879440E8A42E46
:1021B000B12CA318B108B7FE03C09FEFA91AB90A42
:1021C000B594A794C12CCE0101967C018E01055DCA
:1021D0001F4F2D2D432D682D8A2D0E94100EC801F2
:1021E0000E946A109BE0890E911CD12C84E0A80EFD
:1021F000B11CBCA2ABA2BAA2A9A29EA28DA26AEEF9
:1022000071E05D1002C063E671E0CE0101960E94AC
:102210005910B301CE0101960E94D40FBC01CE012A
:1022200046960E949B07CE0101960E946A10D394A5
:1022300095E0890E911C86E0680E711CD410D9CFF0
:10224000CE01C1960E946A10CE01C7960E946A1004
:10225000EC960FB6F894DEBF0FBECDBFDF91CF91E5
:102260001F910F91FF90EF90DF90CF90BF90AF90B4
:102270009F908F907F906F905F904F903F900895C8
:102280000F931F93CF9320919B049CE3921B981371
:1022900027C0C62F062F10E008561B4F86E0F80116
:1022A00084830E94A62522E030E040E050E00E94B6
:1022B0007B2921E0672B682B692B09F020E0F801CE
:1022C000208BC0939A0480910F0190911001029786
:1022D00039F084EC91E0CF911F910F910C94880A12
:1022E000CF911F910F9108958F929F92AF92BF92BD
:1022F000CF92DF92EF92FF92CF93DF93C8E9D4E0C1
:1023000085E0C82ED12CE12CF12C92E0892E912C65
:10231000A12CB12C8C81811118C00E94A625A70187
:1023200096010E947B296C5F7F4F8F4F9F4F6C837C
:102330000E94A625A50194010E947B2921E0672B1C
:10234000682B692B09F020E0288B219684E0C43AA1
:10235000D80701F7DF91CF91FF90EF90DF90CF90FA
:10236000BF90AF909F908F900895CF92DF92EF92A1
:10237000FF921F93CF93DF93EC018091FA0390912A
:10238000FB03883E934008F070C010E020910D01DF
:10239000121768F0AEE0B2E0FD0130E090E080E0BE
:1023A000231759F14191840F911D3F5FF9CF80911F
:1023B0000E0190E001966C01092E000CEE08FF085A
:1023C0000197B1F00E94A625A7019601215031097D
:1023D000410951090E947B29DC01CB010196A11D15
:1023E000B11DE12FF0E0E25FFD4F80831F5FCECF94
:1023F00081E090E0A0E0B0E0F4CF482F421B550B05
:10240000FA01EE0FFF1FE65EFD4F8081918101967C
:102410009183808380E050E040E0281729F09D916F
:10242000490F511D8F5FF9CF8091FC039091FD03FF
:10243000A091FE03B091FF03840F911DA11DB11D5A
:102440008093FC039093FD03A093FE03B093FF03DE
:1024500021978091FA039091FB0301969093FB03DF
:102460008093FA03209709F088CF0E94741180911D
:10247000B504882351F080911E0490911F0466E0FA
:1024800070E00E94182C892B89F480910F019091A3
:102490001001029759F084EC91E0DF91CF911F91E8
:1024A000FF90EF90DF90CF900C94880ADF91CF914E
:1024B0001F91FF90EF90DF90CF9008952F923F9261
:1024C0004F925F926F927F928F929F92AF92BF9244
:1024D000CF92DF92EF92FF920F931F93CF93DF93F0
:1024E000CDB7DEB7A5970FB6F894DEBF0FBECDBF50
:1024F0003C01562E7DA3442E2AA31CA30BA32DB66C
:102500003EB6842F90E05C0121E0A21AB10826E0DB
:10251000289FA001299F500D112459A348A38DB7CE
:102520009EB7841B950B0FB6F8949EBF0FBE8DBF50
:10253000EDB7FEB731966F018F014F0162EE71E08A
:10254000C4010E945910F1E0AF1AB10826E0820ED2
:10255000911C3FEFA316B30689F7952CA52CBDA0BF
:10256000F50161915F01CE0101960E941210F80100
:1025700080819181009709F456C069817A81611543
:10258000710509F44EC0428153812D813E8142176D
:10259000530708F446C00E94312E8D819E81F801B8
:1025A000958384831E821D82CE0101960E946A104B
:1025B0000A5F1F4F8A2D8919841590F2B701CE0149
:1025C00001960E94090FEBA1FCA1828193819F8F4C
:1025D0008E8F8BE591E09D8F8C8FB301CE01469657
:1025E0000E943F109E012F5F3F4F79018E01045ED4
:1025F0001F4F2AA1442DB601CE0146960E947210AB
:10260000CE0146960E946A1008A119A10C0D1D1D4D
:102610000C151D05D1F006501109C8010E946A1061
:10262000F7CF0E94E22C89819A81F80191838083FF
:102630008B819C81938382838D819E81958384830A
:102640001A8219821C821B82ADCF0FB6F8943EBE4F
:102650000FBE2DBEA5960FB6F894DEBF0FBECDBF40
:10266000DF91CF911F910F91FF90EF90DF90CF906E
:10267000BF90AF909F908F907F906F905F904F90A2
:102680003F902F9008952F923F924F925F926F92BA
:102690007F928F929F92AF92BF92CF92DF92EF92F2
:1026A000FF920F931F93CF93DF93CDB7DEB7A4971D
:1026B0000FB6F894DEBF0FBECDBFD82E962E822E59
:1026C000FC8AEB8A642F440F770B880B990B0E94CE
:1026D0006C2820E030E040EE50E40E94872A2B0175
:1026E0003C01B501BB0C880B990B0E946C289B0127
:1026F000AC01C301B2010E94A72820E030E044E30E
:1027000052E40E94162A0E94F92A8B01882021F0A7
:1027100000271127061B170BEC2CF12CC701880F83
:10272000991F8E9DB0018F9D700D9E9D700D11247F
:10273000072E000C880B990B0E946C280E947C2BA2
:102740000E94002B262E312C91012E193F0937FFB4
:1027500002C02F5F3F4F359527953195219531095F
:10276000DA94D20E9A94290D822F220F990B9E8B08
:102770008D8BAD2DDD0CBB0BB88FAF8BEDB7FEB7DE
:10278000FA8FE98F669570E0A60FB71FBE8FAD8FE9
:10279000860F971F98A38F8FCE0101969A8B898BF6
:1027A000D801A859BE4FBC8FAB8FCB01770FAA0BB6
:1027B000BB0B89A39AA3ABA3BCA3AB8DBC8D0A179B
:1027C0001B0709F455C0B801012E000C880B990BAA
:1027D0000E946C2820E030E04EE852E40E94A728D6
:1027E00020E030E44EE755E40E94872A6B017C012B
:1027F00069A17AA18BA19CA10E946C282B013C01AC
:10280000C701B6010E94822A4B015C01C701B601D3
:102810000E946E2B6B017C01A5019401C301B201E2
:102820000E94A7280E94F92A8D8D9E8D860F911DEA
:1028300067FD9A95E989FA8991838083A7019601BA
:10284000C301B2010E94A7280E94F92A8F8D98A186
:10285000860F911D67FD9A95A989BA8913969C9355
:102860008E931297065A1F4F1496BA8BA98BA5CF39
:102870002B813C8149815A816F8178858D819E8130
:102880000E943D0C2F8138854D815E816B857C8552
:1028900089859A850E943D0C2B853C8549855A8502
:1028A0006F8578898D859E850E943D0C2F8538899E
:1028B0004D855E856B817C8189819A810E943D0C6A
:1028C0000FB6F894DEBF0FBECDBF91012450310981
:1028D00037FF02C02F5F3F4F359527958F89988D21
:1028E000820F931F0196AB89BC891E969C938E9391
:1028F0001D971C969C938E931B978D899E89820FA2
:10290000931F019650969C938E931F970E94A62525
:1029100029E030E040E050E00E947B29665D7E4F78
:10292000FB0160818B899C89A4960FB6F894DEBF69
:102930000FBECDBFDF91CF911F910F91FF90EF9010
:10294000DF90CF90BF90AF909F908F907F906F90CF
:102950005F904F903F902F900C9421092F923F92BF
:102960004F925F926F927F928F929F92AF92BF929F
:10297000CF92DF92EF92FF920F931F93CF93DF934B
:10298000CDB7DEB7CC56D1090FB6F894DEBF0FBE77
:10299000CDBF80910004809301040E94A00A80931F
:1029A000000480E0EAEBF4E081118FEF00248193D2
:1029B0008193819381930394D1F710920304109231
:1029C0000204109205041092040408E914E06196D0
:1029D0001FAF0EAF6197F801848118160CF09EC0EE
:1029E00081508483319614E0E43AF107A9F700910D
:1029F0009804109199040115110509F091C06AEB32
:102A000078E0CE0146960E94090FBE016A5E7F4FB4
:102A1000CE0101960E94090F65E671E0CE018B960A
:102A20000E9459108FE290E09F878E879D878C8748
:102A300082E190E0998B888BBE01655D7F4FCE016E
:102A400001960E949B07CE018B960E946A10BE01E0
:102A50006A5E7F4FCE0101960E94090F6DE671E01C
:102A6000CE018B960E94591082E290E09F878E875C
:102A70009D878C8787E190E0998B888BBE01655D8F
:102A80007F4FCE0101960E949B07CE018B960E943C
:102A90006A10BE016A5E7F4FCE0101960E94090F47
:102AA0006AE771E0CE018B960E94591080E290E0B7
:102AB0009F878E879D878C8781E290E0998B888B9A
:102AC000BE01655D7F4FCE0101960E949B07CE013E
:102AD0008B960E946A10BE016A5E7F4FCE010196FE
:102AE0000E94090F68E871E0CE018B960E94591090
:102AF00086E390E09F878E879D878C878BE290E0AE
:102B0000998B888BBE01655D7F4FCE0101960E9437
:102B10009B07CE018B960E946A100AC180E061CFAC
:102B20000130110509F0C1C16AEB78E0CE0146968B
:102B30000E94090F2090D1083090D20840909A044A
:102B400010910E0160910D01CE018B960E94121022
:102B50006DE871E0CE01C1960E945910612FCE013F
:102B6000C7960E94121032E2632E712C912C812C98
:102B7000042C000C5508162DBE016A5E7F4F4814C8
:102B800059040CF41AC16196AEADBFAD61971496AD
:102B90008C9118160CF011C1CE0101960E94090FFC
:102BA00021963FAE2EAE2197EBE5F1E0FEAFEDAF03
:102BB00094EBA92EB12C23E1C22E8E010F5F1F4F83
:102BC0007801045C1F4F6196AEADBFAD6197509622
:102BD0002C91509714964C916FE0862D0E944313D0
:102BE0005FEF851A950A61966EAD7FAD61976F5F55
:102BF0007F4F61967FAF6EAF619774E1670E711C76
:102C000083E08816910409F0B6CFBE016A5E7F4F5B
:102C1000CE0101960E94090F6FE871E0CE01CD96BA
:102C20000E9459108AE290E09F878E879D878C874B
:102C300084E290E0998B888BBE01635C7F4FCE016C
:102C400001960E949B07CE01CD960E946A10BE019C
:102C50006A5E7F4FCE0101960E94090F69E971E01B
:102C6000CE01CD960E94591082E290E09F878E8718
:102C70009D878C8789E290E0998B888BBE01635C8D
:102C80007F4FCE0101960E949B07CE01CD960E94F8
:102C90006A10BE016A5E7F4FCE0101960E94090F45
:102CA00066EA71E0CE01CD960E94591087E290E06D
:102CB0009F878E879D878C878EE290E0998B888B8B
:102CC000BE01635C7F4FCE0101960E949B07CE013F
:102CD000CD960E946A10CE01C7960E946A10CE015E
:102CE000C1960E946A10CE018B960E946A10809154
:102CF0009B0418160CF0D7C0815080939B0460E0B1
:102D000086E00E94401161E088E00E94401162E08C
:102D10008CE00E94401180919B04811109C0809138
:102D20009804909199040196909399048093980443
:102D300000919804109199040530110531F48091A7
:102D4000FA039091FB03892BE1F488E00E94A80A22
:102D5000882311F40C94DC1F0115110511F40C9457
:102D6000DC1F01501109109399040093980480917D
:102D7000980490919904019711F00C94EC1F0E9413
:102D8000F30E0E94F505C459DF4F0FB6F894DEBF6D
:102D90000FBECDBFDF91CF911F910F91FF90EF90AC
:102DA000DF90CF90BF90AF909F908F907F906F906B
:102DB0005F904F903F902F900895CE0101960E9412
:102DC000090F27963FAE2EAE2797EBE5F1E025964B
:102DD000FFAFEEAF2597481459040CF45DC0F6E040
:102DE000F89DB001F99D700D11242BE230E02C0FFD
:102DF0003D1F620F731FCE01CD960E943F10229699
:102E00006FAD2297862F880F880F860F6150860F2F
:102E1000682F70E090E080E00E946C289B01AC017C
:102E200060E070E088E991E40E94152A20E030E03B
:102E300040E05FE30E94A7286B017C01612F110F26
:102E4000770B880B990B0E946C289B01AC01C70182
:102E5000B6010E94162A0E94F92A70930504609315
:102E6000040445E150E05093030440930204BE0182
:102E7000635C7F4FCE018D5B9F4F0E949B0703E0F9
:102E800023E143E16FE070E0C3010E94130DCE0126
:102E9000CD960E946A10A4CE62EE71E0CE01CD966E
:102EA0000E945910ACCF80E028CF0230110509F004
:102EB0006FC061EB71E0CE0146960E94591066EB3F
:102EC00071E0CE014C960E9459106AEB71E0CE0180
:102ED00082960E9459106AEB78E0CE0101960E941A
:102EE000090F8091D1089091D20821969FAF8EAFA3
:102EF00021978BE591E09EAF8DAFD0900F016FEBE6
:102F000071E0CE018B960E945910DE0111967D0171
:102F10008E01035C1F4F2D2D43E0BE016A5E7F4F83
:102F2000CE018B960E947210CE018B960E946A1081
:102F300062E080910F010E94B30A082F10E0109305
:102F4000100100930F0188E00E94A80A811105C0BA
:102F500084E00E94A80A882361F082E0012B09F036
:102F600081E01092060410920704813069F4809386
:102F70000604CE0182960E946A10CE014C960E94F1
:102F80006A10CE014696C7CD81E080930704F1CF49
:102F90000330110509F061C088E0EBE1F1E0DE01EA
:102FA000569601900D928A95E1F76AEB78E0CE0192
:102FB00001960E94090F8091D1089091D208219624
:102FC0009FAF8EAF21978BE591E09EAF8DAF809143
:102FD0000D015E01B6E1AB0EB11CF50130E020E061
:102FE00065019191891331C0922E65EC71E0CE019B
:102FF0008B960E945910FE0131967F018E01035C71
:103000001F4F292D48E0B501CE018B960E945E121C
:10301000CE018B960E946A1020910D0190E080E015
:10302000D5013D915D01231729F001968830910566
:10303000B9F78FEF67E00E94B30A8C0D9D2D911DAB
:10304000FC01808180930D0173CE2F5F3F4F2830AC
:10305000310539F699249A94C8CF0430110509F046
:1030600061C087E0E3E2F1E0DE01569601900D9247
:103070008A95E1F76AEB78E0CE0101960E94090F8C
:103080008091D1089091D20821969FAF8EAF219761
:103090008BE591E09EAF8DAF80910E015E01F6E170
:1030A000AF0EB11CF50130E020E06501919189136C
:1030B00031C0922E6AEC71E0CE018B960E945910BD
:1030C0008E010F5F1F4F7801045C1F4F292D47E0D1
:1030D000B501CE018B960E945E12CE018B960E94A6
:1030E0006A1020910E0190E080E0D5013D915D01D4
:1030F000231729F0019687309105B9F78FEF66E025
:103100000E94B30A8C0D9D2D911DFC01808180933E
:103110000E010ECE2F5F3F4F2730310539F699242F
:103120009A94C8CF0530110509F00FCEF090B40481
:103130001F140CF05EC090910D01EEE0F2E080E013
:10314000981719F011928F5FFBCFE12C0E94BF0EF0
:10315000E816D0F40E2D10E0000F111F065E1D4F73
:10316000D8016D917C9190E080E00E946A282DEC5E
:103170003CEC4CE45FE30E94A7280E94002BF8017E
:1031800071836083E394E2CF6091FA037091FB0353
:1031900090E080E00E946A282DEC3CEC4CE45FE378
:1031A0000E94A7280E94002B7093FB036093FA03F0
:1031B0006091FC037091FD038091FE039091FF03E9
:1031C0000E946A282DEC3CEC4CE45FE30E94A728A7
:1031D0000E94002B6093FC037093FD038093FE0319
:1031E0009093FF03FA94F092B404F1101FC10E946F
:1031F000C90E84E00E94A80A882309F441C0809186
:10320000FA039091FB03892B81F5809164008E7FF6
:103210008093640080917A00806480937A0080912A
:103220007A0086FDFCCF00917800109179000E9411
:10323000D607AB01BC01C801B0E0A0E0DC019927D2
:1032400088278C019D01040F151F261F371FC901F8
:10325000B80120916400216020936400611571051C
:103260008105910511F00E94F5258091FA03909156
:10327000FB03883E934020F481E090E00E94B5116A
:1032800084E00E94E10A882309F4D8C08091B50443
:103290008E310CF0D1C08F5F8093B50484E00E9422
:1032A000E10A8823A9F08091B5048E318CF080E486
:1032B0000E94E10A882309F4C4C08AE090E02091CA
:1032C000FA033091FB03283E334010F40E94B511FD
:1032D00080E80E94A80A882309F4B6C081E090E043
:1032E0009093B9048093B80480910F0190911001DC
:1032F000029709F47FC686ED91E00E94880A20912A
:10330000B8043091B9048091B7042130310509F037
:10331000B1C0865F8093B7048091B704803C0CF005
:10332000AFC01092B9041092B8048FEB8093B70429
:1033300080E80E94A80A882309F4ABC08091B704F2
:103340008F5F8093B7046AEB78E0CE0146960E94C7
:10335000090F6091D1087091D2086D967FAF6EAF62
:103360006D9770910E016E967FAF6E9730900D0144
:10337000BE016A5E7F4FCE0101960E94090F6E96D4
:103380006FAD6E97CE018D5B9F4F0E941210632D23
:10339000CE018B960E941210BE01655D7F4FCE015B
:1033A000CD960E943F106CE072E0CE01CD960E9457
:1033B000BE0FBE016D5B7F4F0E94D40FBC01CE01DA
:1033C000875B9F4F0E943F10C12CCE0101967C016C
:1033D0008E01075B1F4F20E44DE260E080E00E9419
:1033E000100EC8010E946A10CE01CD960E946A108C
:1033F000CE018B960E946A10CE018D5B9F4F0E947A
:103400006A1094E0931508F44EC0A3E03A1608F051
:1034100016C1B1E03B1609F44DC0E2E07AE1D72EC7
:103420003E1609F449C0ECE0DE2E46C084E00E945E
:10343000E10A8111DCCEDDCE8EE12ECF1092B504F3
:103440002DCF81E090E03BCF80E10E94A80A882345
:1034500009F455CF82E090E09093B9048093B804CA
:1034600080910F0190911001029709F044CF809153
:10347000B70404C02230310509F04ECF8A504ACF3C
:1034800087FD56CF1092B9041092B8041092B70479
:103490004FCF80E10E94A80A882309F454CF80917D
:1034A000B70481504ECFF6E0F31508F4BCCFF1E13C
:1034B000DF2E02C0B9E2DB2E2D2D30E089E290E054
:1034C000B9010E942C2C6F966FAF6F97432D631537
:1034D00008F4462F8DE290E04D9D8019910911244A
:1034E00061507109861B970B97FD019695958795FD
:1034F000A4968FAFA4974EE052E063965FAF4EAFB5
:103500006397212C2F5F3F4FB901330F880B990B25
:10351000A8966CAF7DAF8EAF9FAFA89771E07D0D81
:10352000A9967FAFA9978D2D90E0B0E0A0E0AD9671
:103530008CAF9DAFAEAFBFAFAD97321409F479C178
:10354000822D6F966FAD6F970E940C2C8C01A89600
:103550006CAD7DAD8EAD9FADA8970E946C284B01E0
:103560005C01602F70E090E080E00E946C289B017D
:10357000AC01C501B4010E94A72820E030E040E181
:1035800051E40E94162A0E94002B6A966FAF6A9738
:10359000A4969FADA497A996AFADA997A19F900DB2
:1035A000112466969FAF66976196EEADFFAD619769
:1035B000848118160CF046C0BE016A5E7F4FCE01B2
:1035C00001960E94090F6D960EAD1FAD6D971EA757
:1035D0000DA72BE531E03CA72BA75AE5A52EB12C72
:1035E000CD2CAE014F5F5F4F7A018E01055D1F4FFD
:1035F0006196AEADBFAD619750962C9150971496E1
:103600004C916A966FAD6A9766968FAD66970E94E9
:103610004313239461962EAD3FAD61972F5F3F4FCB
:1036200061963FAF2EAF619763964EAD5FAD6397E6
:103630004F5F5F4F63965FAF4EAF63977ECFA4E15E
:10364000DA2E3ACF6E96BFAD6E97BA3020F011E009
:10365000E6E0E31508F010E0BE016A5E7F4FCE01A0
:1036600001960E94090F6D962EAD3FAD6D97219684
:103670003FAF2EAF21974BE551E05EAF4DAF639664
:10368000AEADBFAD63976C91611189C060ED71E023
:10369000CE018B960E945910EFA4F8A86A96BFAD90
:1036A0006A976B2FBB0F770B880B990B0E946C28C6
:1036B0004B015C01AD966CAD7DAD8EAD9FADAD9710
:1036C0000E946A282B013C016696EFAD66976E2F2B
:1036D000EE0F770B880B990B0E946C28A3966CAFAA
:1036E0007DAF8EAF9FAFA397112309F45DC020E09B
:1036F00030E040E850E4C301B2010E94152A20E006
:1037000030E040E05FE30E94A728A50194010E94F9
:10371000162A0E94F92A4B0120E030E040E850E4EC
:10372000F2E0EF16F10420F020E030E040E151E457
:10373000C301B2010E94152A20E030E040E05FE3BF
:103740000E94A728A3962CAD3DAD4EAD5FADA397CB
:103750000E94162A0E94F92A7F876E877D876C87D0
:10376000998A888ABE01655D7F4FCE0101960E94CD
:103770009B076A960FAD6A97602F000F770B01E0E9
:103780002D2D4D2D66961FAD6697812F110F990B2C
:103790000E94130DCE018B960E946A103ACFCE0183
:1037A0008B960E94121078CF6FEF6E0D8E2D880FC2
:1037B000880FE80EE60E6E2D70E090E080E00E942B
:1037C0006C289B01AC01C301B2010E94152A20E0C4
:1037D00030E040E05FE30E94A728A3962CAD3DAD0A
:1037E0004EAD5FADA3970E94162A0E94F92A7093EE
:1037F00005046093040420E030E040EE50E4C3018F
:10380000B2010E94152A20E030E040E05FE30E9410
:10381000A728A50194010E94162A0E94F92A7093F4
:10382000030460930204BE01655D7F4FCE01CD9617
:103830009ECF8091B704803C0CF41AC16AEB78E00B
:10384000CE0146960E94090F0E94BF0E982EA090AE
:10385000B704BE016A5E7F4FCE0101960E94090F38
:1038600069E971E0CE018B960E945910C12CBE010E
:103870006F5F7F4F7B018E01055D1F4F20E442E5A6
:103880006A2D8EE20E94100EC8010E946A100A2C56
:10389000000CBB08B5016D5F7F4F750184E0E80E39
:1038A000F11C0AE710E09B014BE750E089E790E04C
:1038B0000E948F04292D30E08FE490E0821B930B4F
:1038C000B9010E942C2C6B01562F0AE112E061967F
:1038D0001FAF0EAF6197F80110E0F12CE12C9116AB
:1038E00041F0819191918E159F0508F07C011F5F39
:1038F000F6CF412F1C9D400D11244D5F82E590E0D5
:10390000841B910902E08F3F4FEF940734F097FD3D
:1039100001969595879502E0080F511197C0B9015E
:10392000330F880B990B0E946C289B01AC0160E05F
:1039300070E084EA92E40E94872A2B013C0181E036
:10394000912C812C970150E040E065962CAF3DAF63
:103950004EAF5FAF659730E4A30EB11C202F30E06F
:10396000225D3F4FA901330F660B770B69964CAF71
:103970005DAF6EAF7FAF6997682F70E06B967FAFDA
:103980006EAF6B97811608F073C06196AEADBFAD98
:1039900061976D917D916196BFAFAEAF619790E0F9
:1039A00080E00E946A286B017C0165966CAD7DAD5C
:1039B0008EAD9FAD65970E946A289B01AC01C7013F
:1039C000B6010E94872A20E030E044E552E40E94DC
:1039D000A7280E94002B062F662309F445C0150175
:1039E000261A3108B2E02B1A310869966CAD7DAD0C
:1039F0008EAD9FAD69970E946C286B017C01B4016C
:103A0000092C000C880B990B0E946C28A3019201D1
:103A10000E94A7289B01AC01C701B6010E94162A8B
:103A20000E94F92A7B016B96CEACDFAC6B97C60E79
:103A3000D71EEC14FD04C4F421E0402FB101C701EE
:103A40000E94140CEFEFEE1AFE0AF3CFB6017727AF
:103A50006F5F7F4F072E000C880B990B0E946C281C
:103A60002B013C018C2D6CCFFFEF8F1A9F0A8ACF60
:103A70008091B70487FF0FC26AEB78E0CE014696CB
:103A80000E94090F2090FC033090FD034090FE033C
:103A90005090FF036090FA037090FB03A0900D011B
:103AA000B0900E01AB9CB02C11240E94BF0ED82EFA
:103AB0008090B70401E4800EBE016A5E7F4FCE01A4
:103AC00001960E94090F62ED71E0CE018B960E9473
:103AD0005910C12C9E012F5F3F4F79018E01055D6A
:103AE0001F4F20E442E5682D8EE20E94100EC801AF
:103AF0000E946A10082C000C9908B4016C5F7F4F7B
:103B0000740133E0E30EF11C0AE710E09B014BE780
:103B100050E089E790E00E948F0474014BE0E40ECE
:103B2000F11C8D2C912C50E15D1508F0B2C1C4013F
:103B3000429797FD019695958795D82E82E390E060
:103B40009CA38BA39AA389A3FEA2EDA260ED71E0D2
:103B500061147104D9F0C201B1010E946A281B01ED
:103B60002C01B301072C000C880B990B0E946C28C8
:103B70009B01AC01C201B1010E94872A8E010F5F37
:103B80001F4F21E04CEF0E943C25B801CE018B96DF
:103B90000E94591068ED71E0CE0101960E94591003
:103BA000BE01655D7F4FCE0101960E94D40F61EE8C
:103BB00071E00E94BE0FBC01CE0146960E949B0799
:103BC000CE0101960E946A10CE018B960E946A1067
:103BD0001CA61BA61EA61DA618AA1FA64AE0BE016B
:103BE0006F5F7F4FC3010E940926BE016F5F7F4F49
:103BF000CE018B960E94081063EE71E0CE01019613
:103C00000E945910BE01655D7F4FCE0101960E9452
:103C1000D40F61EE71E00E94BE0FBC01CE0146964A
:103C20000E949B07CE0101960E946A10CE018B96DE
:103C30000E946A106B2DCE01CD960E9412106A2D43
:103C4000CE018B960E9412106CEE71E0CE010196AF
:103C50000E945910BE01655D7F4FCE0101960E9402
:103C6000D40F61EF71E00E94BE0FBE01635C7F4F15
:103C70000E94D40FBC01CE0146960E949B07CE0144
:103C800001960E946A10CE018B960E946A10CE01A6
:103C9000CD960E946A102D2C0D2C000C3308C1010A
:103CA0000B968401881599051CF48101045F1F4F50
:103CB000B30190E080E065966CAF7DAF8EAF9FAFB3
:103CC000659795E2C92EC701FF0CAA0BBB0B69963D
:103CD0008CAF9DAFAEAFBFAF6997AA2DB0E06B962A
:103CE000BFAFAEAF6B97AD2CB12CA016B1060CF0E8
:103CF000D2C0F501EE0FFF1FE65EFD4F60817181BE
:103D000090E080E00E946A282B013C0165966CAD32
:103D10007DAD8EAD9FAD65970E946A289B01AC0179
:103D2000C301B2010E94872A20E030E048EC52E44F
:103D30000E94A7280E94002B60966FAF6097C50174
:103D40008219930966E070E00E942C2CC69E400107
:103D5000C79E900C11247401B2E3EB0EF11CBC0160
:103D6000990F880B990B0E946C2820E030E040E608
:103D700050E40E94162A20E030E040EA50E40E941D
:103D8000A7282B013C0169966CAD7DAD8EAD9FAD32
:103D900069970E946C289B01AC01C301B2010E948B
:103DA000162A0E94F92A2B01FCA2EBA2FAA2E9A290
:103DB0007EA36DA36B96EEADFFAD6B97AE0EBF1EEF
:103DC0006AEE71E0FAE0AF16B10414F062EE71E051
:103DD000CE0146960E944E0F6AEE71E024E6A216CE
:103DE000B10414F062EE71E0CE0146960E944E0FCF
:103DF0001CA61BA61EA61DA618AA1FA64AE0BE0149
:103E00006F5F7F4FC5010E94FE25BE016F5F7F4F30
:103E1000CE018B960E940810BE01655D7F4FCE01DA
:103E200046960E949B07CE018B960E946A10C401A1
:103E3000805C9F4F9CA38BA39AA389A35EA24DA2F3
:103E40006FED71E0CE0146960E944E0F33E4830E73
:103E5000911C9CA28BA29AA289A25EA24DA26096FE
:103E60006FAD6097CE0101960E941210BE016F5F88
:103E70007F4FCE0146960E949B07CE0101960E947D
:103E80006A1068EF71E0CE0146960E944E0FD394FF
:103E90002ACFD12C53CE88E00E94E10A882309F46E
:103EA00088C08091B6048E3134F08EE18093B604E0
:103EB0000E94F30E05C08F5F8093B6048E31C1F36C
:103EC00088E00E94A80A882379F00E9474118FE08C
:103ED0008093B40480910F0190911001029721F01A
:103EE00088EF91E00E94880A84E00E94E10A88231A
:103EF00011F40C9498168091FA039091FB03883E7C
:103F0000934010F40C9498166AEB78E0CE01469634
:103F10000E94090FBE016A5E7F4FCE0101960E948A
:103F2000090F6AEF71E0CE018B960E945910CC24E4
:103F3000C394BE016F5F7F4F7B018E01055D1F4FF4
:103F400028E14AE264E18BE20E94100EC8010E945F
:103F50006A1060E072E0C7010E94591066E072E0EA
:103F6000CE0107960E9459100FE210E01CA30BA38C
:103F70001AA309A38FE190E09EA38DA3B701CE0100
:103F800046960E949B071CA30BA31AA309A384E2D5
:103F900090E09EA38DA3BE01695F7F4FCE01469640
:103FA0000E949B07CE0107960E946A10C7010C94DD
:103FB0008B151092B60484CF84E00E94A80A88234F
:103FC00011F40C94C1160530110511F40C94C116AE
:103FD0000F5F1F4F0C94B31680910F019091100149
:103FE000029711F40C94C11683E498E00E94880AA9
:103FF0000C94C1168091B7048CC91F920F920FB612
:104000000F9211248F939F938091E1009091E10092
:10401000937F9093E10083FF0FC01092E90091E03D
:104020009093EB001092EC0092E39093ED001092CD
:10403000370498E09093F00082FF22C093E09093C1
:10404000E9009091F200992319F09AE39093E80027
:1040500090912804992341F09091280491509093D5
:104060002804911101C05D9A90913604992341F082
:1040700090913604915090933604911101C0289A82
:1040800084FF18C08091E2008E7E81608093E20000
:104090008091E1008F7E8093E100809129048E7EE3
:1040A0008061809329049F918F910F900FBE0F9094
:1040B0001F90189580FFF7CF8091E2008E7E80617F
:1040C0008093E2008091E1008E7E8093E1008091F8
:1040D00029048E7E8160E5CF1F920F920FB60F925A
:1040E0001124CF92DF92EF92FF920F931F932F93A1
:1040F0003F934F935F936F937F938F939F93AF9370
:10410000BF93EF93FF93CF93DF93CDB7DEB76C9759
:10411000DEBFCDBF1092E9008091E80083FF25C08B
:1041200068E0CE0145960E948D0782EF8093E800FB
:104130008D8987FF39C09091E80090FFFCCF982FC0
:10414000907609F034C19E894F89588D2F89F88C5B
:10415000911131C0803861F5809127048093F1007E
:104160001092F1008EEF8093E8006C960FB6F894F1
:10417000DEBF0FBECDBFDF91CF91FF91EF91BF9119
:10418000AF919F918F917F916F915F914F913F91EF
:104190002F911F910F91FF90EF90DF90CF900F9094
:1041A0000FBE0F901F9018959EEF9093E800C7CF19
:1041B0001092F100D5CF913059F48111D3CF413015
:1041C000510581F6809127048D7F80932704CACF03
:1041D000933049F48111C6CF4130510519F68091D1
:1041E00027048260F2CF953041F48091E80080FF8F
:1041F000FCCF20682093E300B5CF963009F0A9C02A
:104200000B8D1C8D22E01092E90010922504109273
:104210002404F2122EC010922304109222040E9451
:104220005C071F8299E09983FA8291E09E8390EA6D
:1042300098879AEF99872091240430912504275F6D
:104240003F4F3C832B838D831092E900109225040D
:1042500010922404109323040093220449E050E0B8
:10426000BE016F5F7F4F80E00E9436070E945C07AF
:1042700079CF10932304009322040E944006DC01AE
:1042800012960D911C910115110509F451C1D80127
:10429000ED91FC910480F581E02DBE016B5E7F4FB6
:1042A000C8010995009709F03EC1F8010085118504
:1042B000EACFF3E0FF120EC08F89882309F440C0D3
:1042C000823061F440E867E08BE398E00E940307E6
:1042D000811148CF81E28093EB0047CF813029F4F0
:1042E00040E86BE08FE298E0F1CF833099F70E94CD
:1042F0004006DC011296ED90FC908E010F5F1F4F7F
:104300006801E114F10479F0D701ED91FC91068088
:10431000F781E02DB801C7010995080F111DF701BC
:10432000E084F184EECFD8011C92F60101900020C8
:10433000E9F73197BF016C197D0940E0C601C6CF8E
:1043400069E178E0FB01449150E080E80E94360783
:1043500009CF973009F4BECF983021F481E08093E3
:10436000F10000CF993009F0FDCE837009F0B2CF93
:10437000E3E3F1E081E031E096E32191222371F063
:104380008093E9003093EB00DF0111972C9120938B
:10439000EC009093ED008F5F873079F78EE7809384
:1043A000EA001092EA008F8980933704DBCE8B8D70
:1043B0009C8D1092E9001092250410922404909391
:1043C000230480932204898D811192C08E899D8956
:1043D000913A49F4813209F07DCF47E050E065E041
:1043E00071E080E0B3CF913209F074CF833269F489
:1043F0008F89988DB0E0A0E0809301019093020135
:10440000A0930301B0930401ADCE803269F4809192
:10441000E80082FFFCCF67E085E091E00E948D0715
:104420008BEF8093E8009ECE823209F09BCE8F897D
:1044300080930C01EEEFFFE7859194918B3F9C4DAB
:1044400051F1E0E0F8E08091050190910601A09122
:104450000701B0910801803B9440A105B105F1F43A
:1044600080910C0180FD1AC0EE3F8AE0F80789F5C3
:1044700087E797E79183808380916000809326048B
:1044800088E19BE00FB6F894A895809360000FBE7A
:104490009093600067CEEEEFFAE0D5CF80819181F6
:1044A0008737974709F05ECEA895809160008861B4
:1044B000809360008091260480936000EE3F2AE0A4
:1044C000F20789F08091FE0A9091FF0A9183808320
:1044D00049CE808191818737980751F29093FF0AE6
:1044E0008093FE0AC5CF1092FF0A1092FE0A3ACEC0
:1044F0000E944006DC0112960D911C9101151105D8
:1045000009F4E8CED801ED91FC910190F081E02D05
:10451000BE016B5E7F4FC8010995811123CEF80162
:1045200000851185EBCF181619060CF41BCED2CEE0
:10453000F1E0FF12BECE6DE178E004CF1F920F9242
:104540000FB60F9211242F933F938F939F93AF93A6
:10455000BF9380911A0490911B04A0911C04B09108
:104560001D043091140423E0230F2D3758F50196D4
:10457000A11DB11D2093140480931A0490931B0471
:10458000A0931C04B0931D0480911504909116040F
:10459000A0911704B09118040196A11DB11D80933C
:1045A000150490931604A0931704B0931804BF91B8
:1045B000AF919F918F913F912F910F900FBE0F90D0
:1045C0001F90189526E8230F0296A11DB11DD2CF8A
:1045D0001F920F920FB60F9211242F933F934F9378
:1045E0005F936F937F938F939F93AF93BF93EF935B
:1045F000FF938091100490911104A0911204B09146
:104600001304892B8A2B8B2B09F440C080910F0453
:1046100081110BC088B190E4892788B980910E047C
:10462000882319F088B1805888B98091100490913E
:104630001104A0911204B0911304181619061A0659
:104640001B069CF48091100490911104A091120417
:10465000B09113040197A109B109809310049093BC
:104660001104A0931204B0931304FF91EF91BF9132
:10467000AF919F918F917F916F915F914F913F91FA
:104680002F910F900FBE0F901F9018950E94E00978
:10469000ECCFE8E3F4E01382128288EE93E0A0E02E
:1046A000B0E084839583A683B7838DE391E0918303
:1046B00080838FEF9FEF95878487EFECF8E013827C
:1046C00012828BE591E09183808386E594E090935C
:1046D00097048093960480E090E8909395048093EB
:1046E000940446983E9A47983F9AEAEBF8E0138282
:1046F00012828FE491E0918380838AEB94E0968329
:10470000858380E890E09087878380E490E09287BB
:10471000818785E0848B81E0838B16861586108ADD
:1047200017861486138681E090E0928B818B148229
:10473000E8E9F4E0918380838FEF82838CE38383C5
:10474000148E158E168E178E11A210A208957894CD
:1047500084B5826084BD84B5816084BD85B5826086
:1047600085BD85B5816085BD80916E008160809337
:104770006E001092810080918100826080938100A0
:1047800080918100816080938100809180008160B0
:10479000809380008091910082608093910080914D
:1047A000910081608093910080919000816080935E
:1047B00090008091C10084608093C1008091C1000D
:1047C00082608093C1008091C10081608093C100AC
:1047D0008091C30081608093C3008091C00082609B
:1047E0008093C0008091C20081608093C20080915C
:1047F0007A00846080937A0080917A00826080934E
:104800007A0080917A00816080937A0080917A00AA
:10481000806880937A0010923704109227041092D7
:1048200029048091D70081608093D70080EA80932B
:10483000D80089B5806189BD89B5826089BD09B418
:1048400000FEFDCF61E070E080E090E00E94FB0799
:104850008091D8008F7C80618093D8008091E000A7
:10486000807F8093E0008091E1008E7E8093E10064
:104870008DE08093E200559A209A81EC80937C0031
:1048800085B1806F85B984B1877E84B984B1876E24
:1048900084B95E9A5F988AB1806D8AB9769A6E986B
:1048A00081B3806F81BB899880B38D7080BB80E5B8
:1048B0008CBD81E08DBD85E090E00E949B0A5F9AEF
:1048C00085E090E00E949B0A5E985C98EAECF7E035
:1048D00084918EBD00000DB407FEFDCF319687E0B8
:1048E000E73DF807A9F75C9A81E88093640080911E
:1048F00065008160809365000E94F50580E80E9454
:10490000E10A8823A9F05C9885EA8EBD00000DB409
:1049100007FEFDCF5C9A2E982F982D988091640009
:1049200080628093640081E083BF889513BEFCCFD2
:1049300084E00E94E10A882309F446C02D9884E8A7
:104940000E94E10A8823D9F02D9A88EC90E00E9419
:104950009B0A2F9882E090E00E9465298F3F29F002
:104960006FEF82E090E00E946D2984EF91E00E9459
:104970009B0A2F9A84E80E94E10A8111FBCF84E10F
:104980000E94E10A8823D9F02D9A88EC90E00E94D9
:104990009B0A2E9882E090E00E946529882329F0E6
:1049A00060E082E090E00E946D2984EF91E00E9437
:1049B0009B0A2E9A84E10E94E10A8111FBCF88ECC8
:1049C00090E00E949B0AB4CF2D9A82E090E00E9472
:1049D0006529882361F13E9A3F9A81E0809319040A
:1049E00082E390E00E949B0A0E94A00A8111F8CF06
:1049F00081E2809300010E94C90E11E0C0E0D0E086
:104A000001E08FB7F89440911A0450911B04609113
:104A10001C0470911D048FBF80912004882361F0D5
:104A200010922004209769F30E940000EACF1092B0
:104A300019043E983F98D4CF80912104942F981B5D
:104A4000892F90910001891738F48F5F891750F7EB
:104A500013BF889513BEE6CF009320044093210432
:104A600080911E0490911F04019690931F048093DF
:104A70001E040E94AE14D6CFEF920F931F93CF93D4
:104A8000DF93E80134E047FD34E1042E000C550BC0
:104A900057FF03C0519541955109E32E022F242F52
:104AA000AE010E942326CE01DF91CF911F910F917D
:104AB000EF9008958F929F92AF92BF92CF92DF9224
:104AC000EF92FF92CF93DF93EC01688179818A8125
:104AD0009B81611571058105910521F464E279EDF1
:104AE0008BE597E02DE133EF41E050E00E947B2918
:104AF00049015A019B01AC01A7EAB1E40E949A293D
:104B00006B017C01ACEEB4EFA50194010E94A829D1
:104B1000C60ED71EE81EF91EF7FE06C081E0C81AB1
:104B2000D108E10880E8F80AC882D982EA82FB82CB
:104B3000C701B6019F77DF91CF91FF90EF90DF9093
:104B4000CF90BF90AF909F908F9008958F929F923B
:104B5000AF92BF92CF92DF92EF92FF9260911101DC
:104B600070911201809113019091140161157105EA
:104B70008105910521F464E279ED8BE597E02DE163
:104B800033EF41E050E00E947B2949015A019B012B
:104B9000AC01A7EAB1E40E949A296B017C01ACEE5A
:104BA000B4EFA50194010E94A829C60ED71EE81EE5
:104BB000F91EF7FE06C081E0C81AD108E10880E8B6
:104BC000F80AC0921101D0921201E0921301F09202
:104BD0001401C701B6019F77FF90EF90DF90CF904F
:104BE000BF90AF909F908F90089560931101709344
:104BF000120180931301909314010895BB274A304A
:104C000031F4992322F4BDE2909581959F4F0C9445
:104C10000A26BB27FB015527AA27880F991FAA1F21
:104C2000A41710F0A41B83955051B9F7A05DAA33C7
:104C300008F0A95DA193009779F7B111B193119292
:104C4000CB010C945A28A9E0B0E0E9E2F6E20C941A
:104C5000B3296A01F22EB02E102FFBE3AF2EA0165F
:104C600008F41BE31F5F012F27E0AE014F5F5F4F8A
:104C70000E948227BC018981982F9970913009F494
:104C80003FC09BE2E1FC04C09E2D9170E0FC3AC065
:104C90005E2D5071E82FE87083FF46C084E09111CB
:104CA00001C083E0EF2DE81B8F1508F0E0E0D6018E
:104CB0008E2F20E2552351F1992329F0D6019C93A0
:104CC000C60101966C0196012D5F3F4FE2FE24C0A4
:104CD0008EE4D6018C9391E411969C9311971296D1
:104CE0008C93D9018E2F90E281111BC0E20FF32F1C
:104CF000F11D10828EEF9FEF2996ECE00C94CF29E6
:104D00009DE2C6CF90E2C4CF2D9381508111FCCF9C
:104D1000CE0ED11CE0E0D0CF8EE6D6018C9391E68A
:104D2000DBCF9D938150E0CF482F447082FF3DC080
:104D300084E0911101C083E08F1510F4EF2DE81B82
:104D4000D6018E2F20E2552309F1992329F0D601AF
:104D50009C93C60101966C0196012D5F3F4FE2FEC8
:104D60001BC089E4D6018C938EE411968C93119725
:104D700086E412968C93D9018E2F90E2882309F451
:104D8000B5CF9D938150FACF2D9381508111FCCFE7
:104D9000CE0ED11CE0E0D9CF89E6D6018C938EE609
:104DA00011968C93119786E6E4CF9B0177FF02C0A2
:104DB00030E020E0A1E0B0E0911102C0B0E0A0E05E
:104DC000F9013196AE0FBF1F8B2C912CBB2009F43B
:104DD00061C05401EFEFAE1ABE0AAA0DBB1DFA1650
:104DE0001B0619F014F04F2D4A1B511188C0E3FC2B
:104DF00059C07601A42FB0E2A1114FC0C40ED11C3E
:104E0000992309F45BC040E0D6011196F601908326
:104E10006D01552309F448C0012F060F9A81582FC0
:104E2000507184FF03C0913309F4015010160CF047
:104E300047C0093008F008E0EEE2FE2E5B01A01A40
:104E4000B10885019194819491082F3F320729F48C
:104E5000D601FC92F60131966F016217730794F147
:104E6000021713077CF5DB01A21BB30BAA24A39442
:104E7000B12CAC0EBD1EAA0DBB1D11968C912150FC
:104E80003109D601119628153905F4F0F601808311
:104E90006D01DBCFB12CA12CA0CFF701B1937F0125
:104EA000A150AACF9111B0CFD601942F50E302C0E8
:104EB0005D9391509111FCCFC40ED11C40E0ACCF5A
:104EC00001E0BACF80E3DBCF6217730731F496338A
:104ED00088F4953311F4552369F0F6018083FD01C0
:104EE000842F90E2811108C0A40FB11D1C9290E0A4
:104EF00080E002CF81E3F1CF91938150F3CF911104
:104F000083CF8ACF283008F027E03327DA01990FC2
:104F1000311D87FD916000966105710539F432609D
:104F20002E5F3D9330E32A95E1F708959F3F30F0DF
:104F300080387105610509F03C5F3C5F3D9391301D
:104F400008F08068911DDF93CF931F930F93FF921A
:104F5000EF92192F987F9695E92F96959695E90FE0
:104F6000FF27EC5DFE4F99273327EE24FF24A7018E
:104F7000E70105900894079428F4360FE71EF81E01
:104F8000491F511D660F771F881F991F0694A1F7AF
:104F90000590079428F4E70EF81E491F561FC11DFF
:104FA000770F881F991F661F0694A1F70590079435
:104FB00028F4F80E491F561FC71FD11D880F991FCF
:104FC000661F771F0694A1F70590079420F4490FF8
:104FD000561FC71FD81F990F661F771F881F06947B
:104FE000A9F784911095177041F0D695C7955795FC
:104FF0004795F794E7941A95C1F7EAECF0E06894C6
:105000001590159135916591959105907FE2739575
:10501000E118F10A430B560BC90BD009C0F7E10C9C
:10502000F11E431F561FC91FD01D7EF4703311F4AB
:105030008A95E6CFE894015030F0080F0AF4002773
:10504000021708F4202F2395022F7A3328F079E3F2
:105050007D932A95E9F710C07D932A9589F60694E9
:1050600097956795379517951794E118F10A430BB3
:10507000560BC90BD00998F023957E9173957A331E
:1050800008F070E37C932013B8F77E9170617D93F4
:1050900030F0839571E37D9370E32A95E1F7112455
:1050A000EF90FF900F911F91CF91DF91992787FD8E
:1050B00090950895DC01FC01672F71917723E1F74A
:1050C000329704C07C916D9370836291AE17BF07D5
:1050D000C8F30895E89409C097FB3EF49095809535
:1050E000709561957F4F8F4F9F4F9923A9F0F92FAE
:1050F00096E9BB279395F695879577956795B7952C
:10510000F111F8CFFAF4BB0F11F460FF1BC06F5F11
:105110007F4F8F4F9F4F16C0882311F096E911C023
:10512000772321F09EE8872F762F05C0662371F044
:1051300096E8862F70E060E02AF09A95660F771F58
:10514000881FDAF7880F9695879597F908950E943A
:10515000BA280C942B290E941D2938F00E9424297A
:1051600020F0952311F00C9414290C941A29112481
:105170000C945F290E943C2970F3959FC1F3950F11
:1051800050E0551F629FF001729FBB27F00DB11DCB
:10519000639FAA27F00DB11DAA1F649F6627B00D5B
:1051A000A11D661F829F2227B00DA11D621F739F44
:1051B000B00DA11D621F839FA00D611D221F749F52
:1051C0003327A00D611D231F849F600D211D822F99
:1051D000762F6A2F11249F5750409AF0F1F08823C0
:1051E0004AF0EE0FFF1FBB1F661F771F881F9150ED
:1051F0005040A9F79E3F510580F00C9414290C945F
:105200005F295F3FE4F3983ED4F3869577956795E1
:10521000B795F795E7959F5FC1F7FE2B880F911D16
:105220009695879597F9089597F99F6780E870E0BC
:1052300060E008959FEF80EC089500240A9416160C
:10524000170618060906089500240A941216130674
:10525000140605060895092E0394000C11F4882302
:1052600052F0BB0F40F4BF2B11F460FF04C06F5F1E
:105270007F4F8F4F9F4F089557FD9058440F551FF4
:1052800059F05F3F71F04795880F97FB991F61F0C8
:105290009F3F79F087950895121613061406551F3F
:1052A000F2CF4695F1DF08C0161617061806991FAB
:1052B000F1CF86957105610508940895E894BB27A0
:1052C00066277727CB0197F90895F999FECF92BD0C
:1052D00081BDF89A992780B50895262FF999FECFB8
:1052E0001FBA92BD81BD20BD0FB6F894FA9AF99A03
:1052F0000FBE01960895052E97FB1EF400940E94A0
:10530000922957FD07D00E94E42907FC03D04EF4F0
:105310000C94922950954095309521953F4F4F4FD1
:105320005F4F089590958095709561957F4F8F4F51
:105330009F4F08950E94062AA59F900DB49F900D3F
:10534000A49F800D911D11240895B7FF0C949A29F4
:105350000E949A29821B930B08952F923F924F929D
:105360005F926F927F928F929F92AF92BF92CF92F5
:10537000DF92EF92FF920F931F93CF93DF93CDB7FE
:10538000DEB7CA1BDB0B0FB6F894DEBF0FBECDBF76
:1053900009942A88398848885F846E847D848C8447
:1053A0009B84AA84B984C884DF80EE80FD800C8150
:1053B0001B81AA81B981CE0FD11D0FB6F894DEBF33
:1053C0000FBECDBFED010895A1E21A2EAA1BBB1B93
:1053D000FD010DC0AA1FBB1FEE1FFF1FA217B307C1
:1053E000E407F50720F0A21BB30BE40BF50B661FD7
:1053F000771F881F991F1A9469F76095709580959B
:1054000090959B01AC01BD01CF010895A29FB00111
:10541000B39FC001A39F700D811D1124911DB29FE8
:10542000700D811D1124911D08955058BB27AA2786
:105430000E942D2A0C942B290E941D2938F00E94CD
:10544000242920F039F49F3F19F426F40C941A29EA
:105450000EF4E095E7FB0C941429E92F0E943C29F7
:1054600058F3BA17620773078407950720F079F499
:10547000A6F50C945E290EF4E0950B2EBA2FA02D04
:105480000B01B90190010C01CA01A0011124FF27F1
:10549000591B99F0593F50F4503E68F11A16F040EC
:1054A000A22F232F342F4427585FF3CF46953795EB
:1054B0002795A795F0405395C9F77EF41F16BA0BB0
:1054C000620B730B840BBAF09150A1F0FF0FBB1F5E
:1054D000661F771F881FC2F70EC0BA0F621F731FA7
:1054E000841F48F4879577956795B795F7959E3F04
:1054F00008F0B0CF9395880F08F09927EE0F979595
:10550000879508950E94312BE3950C945A2B0E94A5
:105510009B2A0C942B290E94242958F00E941D29B3
:1055200040F029F45F3F29F00C94142951110C9498
:105530005F290C941A290E943C2968F39923B1F33E
:10554000552391F3951B550BBB27AA2762177307A9
:10555000840738F09F5F5F4F220F331F441FAA1F3D
:10556000A9F335D00E2E3AF0E0E832D091505040F9
:10557000E695001CCAF72BD0FE2F29D0660F771FA7
:10558000881FBB1F261737074807AB07B0E809F08D
:10559000BB0B802DBF01FF2793585F4F3AF09E3F12
:1055A000510578F00C9414290C945F295F3FE4F3C3
:1055B000983ED4F3869577956795B795F7959F5F55
:1055C000C9F7880F911D9695879597F90895E1E0A1
:1055D000660F771F881FBB1F621773078407BA0700
:1055E00020F0621B730B840BBA0BEE1F88F7E0955B
:1055F00008950E94002B6894B1110C945F290895BE
:105600000E94442988F09F5798F0B92F9927B751E5
:10561000B0F0E1F0660F771F881F991F1AF0BA9556
:10562000C9F714C0B13091F00E945E29B1E008952D
:105630000C945E29672F782F8827B85F39F0B93F1F
:10564000CCF3869577956795B395D9F73EF4909509
:105650008095709561957F4F8F4F9F4F08950C9463
:105660001A290E944429D8F3E894E0E0BB279F5709
:10567000F0F02AED3FE049EC06C0EE0FBB0F661FCD
:10568000771F881F28F0B23A62077307840728F053
:10569000B25A620B730B840BE3959A9572F78038BC
:1056A00030F49A95BB0F661F771F881FD2F790487A
:1056B0000C94BE2BEF93E0FF07C0A2EA2AED3FE077
:1056C00049EC5FEB0E942D2A0E942B290F90039436
:1056D00001FC9058ECEAF0E00C94D12B9F930E94CF
:1056E000312B0F9007FCEE5F0C945A2B19F416F433
:1056F0000C941A290C94BC2B0E944429B8F39923CA
:10570000C9F3B6F39F57550B87FF0E94CA2B00249D
:10571000A0E640EA900180585695979528F4805C61
:10572000660F771F881F20F026173707480730F4C9
:10573000621B730B840B202931294A2BA6951794E1
:105740000794202531254A2758F7660F771F881FB1
:1057500020F026173707480730F4620B730B840BD1
:10576000200D311D411DA09581F7B901842F91585D
:10577000880F9695879508959F3F31F0915020F4BA
:10578000879577956795B795880F911D969587951D
:1057900097F9089591505040660F771F881FD2F7F0
:1057A00008959F938F937F936F93FF93EF939B0144
:1057B000AC010E94A728EF91FF910E94E52B2F9149
:1057C0003F914F915F910C94A728DF93CF931F9344
:1057D0000F93FF92EF92DF927B018C01689406C0D9
:1057E000DA2EEF010E94BA28FE01E894A5912591D6
:1057F000359145915591A6F3EF010E942D2AFE01A6
:105800009701A801DA9469F7DF90EF90FF900F916C
:105810001F91CF91DF910895991B79E004C0991FE2
:10582000961708F0961B881F7A95C9F780950895FA
:10583000AA1BBB1B51E107C0AA1FBB1FA617B707B6
:1058400010F0A61BB70B881F991F5A95A9F78095D2
:105850009095BC01CD01089597FB072E16F4009496
:1058600007D077FD09D00E94182C07FC05D03EF424
:10587000909581959F4F0895709561957F4F0895FC
:10588000EE0FFF1F0590F491E02D09940F931F93E5
:10589000CF93DF938230910510F482E090E0E091A5
:1058A000D508F091D60830E020E0B0E0A0E03097D5
:1058B00099F42115310509F44AC0281B390B24300D
:1058C0003105D8F58A819B816115710589F1FB014C
:1058D00093838283FE0111C0408151810281138133
:1058E00048175907E0F04817590799F4109761F0E5
:1058F00012960C93129713961C933296CF01DF9158
:10590000CF911F910F9108950093D5081093D60859
:10591000F4CF2115310551F04217530738F0A90192
:10592000DB019A01BD01DF01F801C1CFEF01F9CF21
:105930009093D6088093D508CDCFFE01E20FF31FD8
:10594000819391932250310939832883D7CF2091B5
:10595000D3083091D408232B41F4209117013091C2
:1059600018013093D4082093D30820911501309169
:1059700016012115310541F42DB73EB740911901AB
:1059800050911A01241B350BE091D308F091D408F3
:10599000E217F307A0F42E1B3F0B2817390778F006
:1059A000AC014E5F5F4F2417350748F04E0F5F1F65
:1059B0005093D4084093D308819391939FCFF0E004
:1059C000E0E09CCFCF93DF930097E9F0FC013297A2
:1059D00013821282A091D508B091D608ED0130E073
:1059E00020E01097A1F420813181820F931F209134
:1059F000D3083091D4082817390709F061C0F09313
:105A0000D408E093D308DF91CF910895EA01CE172F
:105A1000DF07E8F54A815B819E0141155105B1F729
:105A2000E901FB83EA8349915991C40FD51FEC1713
:105A3000FD0761F4808191810296840F951FE90131
:105A400099838883828193819B838A83F0E0E0E05D
:105A500012968D919C9113970097B9F52D913C91D9
:105A60001197CD010296820F931F2091D308309198
:105A7000D4082817390739F6309751F51092D6080F
:105A80001092D508B093D408A093D308BCCFD38389
:105A9000C28340815181840F951FC817D90761F4D3
:105AA0004E5F5F4F88819981480F591F5183408312
:105AB0008A819B81938382832115310509F0B0CFC0
:105AC000F093D608E093D5089ECFFD01DC01C0CF4E
:105AD00013821282D7CFB0E0A0E0E1E7FDE20C94A0
